:020000040800F2
:1000000000800020E92A00081D2B00081F2B000893
:10001000212B0008232B0008252B000800000000DE
:10002000000000000000000000000000272B000876
:10003000292B0008000000002B2B00082D2B0008A6
:10004000312B0008332B0008352B0008372B000814
:10005000392B00083B2B0008612300083F2B0008C8
:10006000412B0008432B0008452B0008472B0008B4
:10007000492B00084B2B00084D2B00084F2B000884
:10008000512B0008532B0008552B0008572B000854
:10009000592B00085B2B00085D2B00085F2B000824
:1000A000612B0008632B0008652B0008672B0008F4
:1000B000852300086B2B00086D2B00086F2B0008B0
:1000C000712B0008732B0008752B0008772B000894
:1000D000792B00087B2B0008212300087F2B0008C8
:1000E000812B0008832B0008852B0008872B000834
:1000F000892B00088B2B00088D2B00088F2B000804
:10010000912B0008932B0008952B0008972B0008D3
:10011000992B00089B2B00089D2B0008FD2300084D
:10012000A12B0008A32B0008A52B0008A72B000873
:10013000A92B0008AB2B0008AD2B0008AF2B000843
:10014000B12B0008B32B0008B52B0008B72B000813
:10015000B92B0008BB2B0008BD2B0008BF2B0008E3
:10016000C12B0008C32B0008C52B0008C72B0008B3
:10017000C92B0008CB2B0008CD2B0008CF2B000883
:10018000D12B0008D32B000810B5054C237833B9C8
:10019000044B13B10448AFF300800123237010BD5A
:1001A0005C040020000000006431000808B5064B24
:1001B0001BB106480649AFF300800648036813B137
:1001C000054B03B1984708BD0000000064310008EA
:1001D000600400205804002000000000154B002B94
:1001E00008BF134B9D46A3F5803A00218B460F466E
:1001F0001348144A121A02F08FFE0F4B002B00D046
:1002000098470E4B002B00D0984700200021044651
:100210000D4600200C490022002302F0D7FD02F019
:1002200053FE2046294602F025F902F027FE00BFC2
:100230000000080000800020000000000000000016
:100240005C040020344900209D2E000870B54FF456
:100250004065C4F2020544F240241026C0F20F04A7
:1002600020466E8302F0E8F820462E83BDE87040F9
:1002700002F0E2B838B54FF4A844C4F200040221F9
:100280009E22204602F00CF844F24020C0F20F00FB
:1002900002F0D2F820460021992202F001F88022D3
:1002A0002046472101F0FCFF3221204601F0A6FF45
:1002B00060F07F02054632212046D2B201F0F0FF05
:1002C0002046322105F07F0201F0EAFF002120469E
:1002D0000A4601F0E5FF20460421AF22BDE8384080
:1002E00001F0DEBF10B54FF4A844C4F200041C2195
:1002F0007122204601F0D4FF20461E214022BDE895
:10030000104001F0CDBF00BF01F0FCBF4FF4A8408A
:10031000C4F2000001F05EBF012808B508D003D286
:1003200002F034F9002008BD023818BF012008BDD2
:1003300002F042FDC0B208BD012808B508D003D2C2
:1003400002F05CF9002008BD023818BF012008BD8A
:1003500002F034FDC0B208BD012808B50CD006D2A9
:10036000084611461A4602F04BF9002008BD022843
:1003700014BF0420002008BD084611461A4602F0AA
:100380001FFDC0B208BD00BF012808B50CD006D2C1
:10039000084611461A46BDE8084002F037B902285F
:1003A00014BF0420002008BD084611461A4602F07A
:1003B00009FDC0B208BD00BF012808B50BD005D2A9
:1003C00008461146BDE8084002F022B9022814BFD1
:1003D0000420002008BD0846114602F0F5FCC0B21A
:1003E00008BD00BF036970B401F10904002B39D0C6
:1003F0004569224600202B5C0130202B144607D093
:10040000052B08BFE52302F8013B08281446F2D16A
:100410002B7A202B0FD013462E2003F8010BEE1D54
:10042000043216F8010F20281C4604D003F8010BF3
:1004300093421C46F5D1EB7A0B72AB7FEE7F287F9F
:100440006A7F1B0443EA0663034343EA02230B600B
:100450006A7E2B7E43EA02238B80EA7DAB7D43EAF2
:100460000223CB800023237070BC704708B518B1FD
:1004700003680BB11A780AB9092008BDD9888288A7
:100480009142F9D15878FFF757FF10F0010F0CBFD8
:100490000020032008BD00BF38B504460A46407856
:1004A00004F134010123FFF757FF08B1032038BDE1
:1004B00094F8331294F832224AF6552342EA012284
:1004C00012B2CFF6FF739A4201D0022038BD94F8E1
:1004D0006C3094F86D5094F86A1094F86B201B04FB
:1004E00043EA05630B4343EA022244F2461322F037
:1004F0007F42C0F254039A42E8D094F8882094F8DE
:10050000895094F8861094F88700120442EA056234
:100510000A4342EA002020F07F40C01A18BF0120A1
:1005200038BD00BF2DE9F04103681C78303C092C30
:10053000154602D85A783A2A18D000230B60B24BDD
:100540001C68002C25D00C602378C3B16078FFF7BD
:10055000F3FEC20713D4002D26D000F00400C0B271
:10056000002814BF0A200020BDE8F0810233036098
:1005700000230B60002CE2D00B20BDE8F0810020AE
:1005800020706070FFF7C8FEC30705D50320BDE8E3
:10059000F0810C20BDE8F0814DB100F00400C0B244
:1005A00028B10A20BDE8F0812846BDE8F08100218D
:1005B0002046FFF771FF012807D00025032800F02F
:1005C000B880C8B10D20BDE8F08194F8F631002B59
:1005D000F8D094F8FC2194F8FD1194F8FA3194F8CD
:1005E000FB51120442EA0162134343EA0525204607
:1005F0002946FFF751FFE1E794F8402094F83F3097
:1006000043EA0223B3F5007FDCD194F84B2094F841
:100610004A3053EA02220DD194F85A1094F85B0044
:1006200094F8583094F85920090441EA00610B43CA
:1006300043EA022294F84400E261431E012BE07079
:10064000C0D894F84130A370002BBBD0591E19427A
:10065000B8D194F8451094F8466041EA0626B1B244
:1006600016F00F0F2181ADD194F8487094F84760CF
:1006700056EA07260FD194F856C094F8578094F89C
:10068000546094F855704FEA0C4C4CEA086C4CEAF4
:10069000060646EA072694F843C094F8427057EAE3
:1006A0000C278FD000FB02FC07EB11106044864240
:1006B00088D3361AB6FBF3F3002B83D040F6F576D9
:1006C000B34240F2C18006F57046B34200F2A0800A
:1006D00002260233EF194019A36125626762E062C6
:1006E00000293FF46FAF6744022EA76200F08980B3
:1006F000032101FB03F103F0010303EB5103012686
:1007000003F2FF13B2EB532FFFF45CAF00234FF063
:10071000FF32032E2261E3600ED03C4A267013881C
:10072000013300209BB21380E38020632071BDE879
:10073000F0810120BDE8F08194F8651094F8642000
:10074000637142EA0122AA186261607804F13401FF
:100750000123FFF701FE0028DFD194F8331294F84B
:1007600032224AF6552342EA012212B2CFF6FF7333
:100770009A42D2D194F8362094F8370094F8343065
:1007800094F83510120442EA00621A4345F25223EB
:1007900042EA0122C4F261139A42BED194F81A22AD
:1007A00094F81B0294F8183294F81912120442EAD1
:1007B00000621A4347F2722342EA0122C6F2411351
:1007C0009A42AAD194F8227294F81E5294F8238285
:1007D00094F81FC294F8202294F81C3294F8210255
:1007E00094F81D123F042D0447EA086745EA0C659A
:1007F0003A432B4342EA002243EA0123E2602361A9
:100800008BE75B007CE700BF7C04002078040020BD
:100810000233EF194019A36125626762E062002983
:100820007FF4D0AE94F8626094F8637094F860102E
:1008300094F86100360446EA0766314341EA002134
:10084000A1629B0003265BE7012642E7F8B5044658
:10085000007900B9F8BD256B607804F1340739469A
:100860002A460123FFF790FDC0B9626A20719542C4
:1008700012D3E3699A1895420ED2E678012E01D878
:100880000AE0E369ED186078012339462A46013E03
:10089000FFF77AFD012EF4D10020F8BD0120F8BD4C
:1008A0002DE9F84F0546FFF7D1FF024652B92B78E4
:1008B000032B09D0002168780A46FFF77DFD003040
:1008C00018BF0120BDE8F88F6B79002BF2D005F13D
:1008D00034012A6305F50D740B4603F8012BA3427E
:1008E000FBD1EB682A6985F820324FF0550B612067
:1008F0004FEA134C4FEA136E85F81C22522741240D
:100900007226C2F3072A4FEA1249C3F30728120ED0
:1009100085F832B24FF0AA0B85F8360085F81B0235
:1009200085F81F22012385F833B285F8347085F8E5
:10093000357085F8374085F8186285F8196285F8B2
:100940001A4285F81DA285F81E9285F8218285F845
:1009500022C285F823E268786A69FFF715FD002353
:100960006B71A7E738B5036B8B4204460D460FD079
:10097000FFF76CFF08B1012038BD607804F1340145
:100980002A460123FFF7E8FC0028F4D1256338BD8F
:10099000002038BD83690239023B99423DBF82780D
:1009A000C36A02FB01300020704700BF0129F8B57F
:1009B0000C4605460CD98369994209D20378022B6B
:1009C00046D0032B28D0012B04D04FF0FF30F8BDC8
:1009D0000120F8BD416A04EB540601EB5621FFF7F4
:1009E000C1FF0028F1D1F305DB0D696AEB18013670
:1009F000284601EB562193F83470FFF7B3FF002827
:100A0000E3D1F605F60DAD19E10795F8340047EA94
:100A100000202FD50009F8BD416A01EBD411FFF782
:100A2000A1FF0028D1D16406E40D2B191C4693F8D0
:100A3000372093F8361093F8350093F834301206C7
:100A400042EA014242EA0020184320F07040F8BD1B
:100A5000416A01EB1421FFF785FF0028B5D1240678
:100A6000E40D2B191C4693F8343094F8350043EA12
:100A70000020F8BD0005000DF8BD00BF70B50C46A4
:100A80008168C4800129054603D0006883699942C2
:100A900001D3022070BDB1B90378032B10D00389B4
:100AA0000022A342EA60F4D9836A03EB14132B619A
:100AB00004F00F0400EB441034306861002070BD76
:100AC000816A0029EBD086783601B44208D210E062
:100AD0000129DED9286883699942DAD2A64208D86A
:100AE000FFF764FFA41B01460130A4B2F0D101203E
:100AF00070BD8369E960023B023999423DBF82784B
:100B0000C36A02FB0131002101EB14112961CFE717
:100B100010B5C1880446FFF7B1FF00B110BD2068D1
:100B20002169FFF71FFF0028F8D16369E5221A70D9
:100B3000236801221A7110BDF0B5012983B00C465B
:100B4000054602D98369994202D3022003B0F0BD61
:100B50000378022B27D0032B05D0012B37D002209E
:100B600001232B71F2E7416A019201EBD411FFF7E7
:100B7000F9FE019A0028F3D16406E40D2B191C46F6
:100B800093F83710090601F070410A43C2F30727B2
:100B9000160C110E83F8342083F8357083F8366014
:100BA00083F83710DCE7416A019201EB1421FFF76B
:100BB000D9FE019A0028D3D12406E40D2919C2F3E5
:100BC00007230C4681F8342081F83530C8E7416AA4
:100BD000019204EB540601EB5621FFF7C3FE019A84
:100BE0000028BDD1F305DB0D14F001041FBFEB1885
:100BF000D0B293F8341001F00F0113BF41EA001096
:100C0000EB18D0B2C0B2696A83F834000136012310
:100C10002B71284601EB56210192FFF7A3FE019AA2
:100C200000289DD1F605F60D2CB1C2F30712AE19BE
:100C300086F8342094E7AE19C2F3032296F83430D4
:100C400023F00F031A43F3E7F8B506460F4601BB3E
:100C5000C5688369BDB901252C4600E0B36901343C
:100C60009C4202D3012D0CD9022430462146FFF7C5
:100C70009DFEB8B1B0F1FF3F18BF012808D0AC42CB
:100C8000ECD10020F8BD9D4228BF0125E4E72046B5
:100C9000F8BDFFF78BFE01281DD9B3699842F7D341
:100CA0003D46D9E7304621466FF07042FFF744FFDA
:100CB000D0F1010338BF0023002F08BF002393B9F0
:100CC00058B93369F4605A1CE1D0013B3361012308
:100CD00073712046F8BD0120F8BD012814BF012022
:100CE0004FF0FF30F8BD304639462246FFF724FF6B
:100CF0000028F2D1E5E700BF2DE9F047C5880135AE
:100D0000ADB204460E4615B90420BDE8F08703696C
:100D1000002BF9D015F00F0708D0006800EB47133F
:100D20003433E58063610020BDE8F087C16801339A
:100D300003610068E9B18278013A12EA1512EDD137
:100D4000FFF734FE0128804617D9B0F1FF3F60D08D
:100D500020688269904538BFA8F102064CD3002E66
:100D6000D2D0E168FFF770FF804648B90720BDE8A0
:100D7000F0870289AA42C7D9D0E70220BDE8F087F0
:100D80000128FAD0B0F1FF3F43D02068FFF75EFDA5
:100D900000283ED12268014602F1340302F50D72AB
:100DA00003F8011B9342FBD122689369A8F1020664
:100DB000023B9E423DBFD36A917801FB063300237C
:100DC00013634FF000094FF0010A0DE082F804A010
:100DD0002068FFF73BFD09F10109D0B92268136BC8
:100DE000013313635FFA89F9917849451046EDD8CC
:100DF000126BC9EB020202638269C4F80C80023AEA
:100E000096423DBF8178C26A01FB06260026266114
:100E100084E70120BDE8F0872DE9F84F0B782F2BF0
:100E200018BF5C2B0F4608BF4F1C002484603B7822
:100E30001F2B064640F2E48081694FF0200801F143
:100E40000B045C2B18BF2F2B07D17B1C1F4613F8FC
:100E5000012B2F2A18BF5C2AF8D00B4603F8018B10
:100E6000A342FBD1002084464FF00809824617F8C0
:100E70000C202F2A18BF202A0CF1010C33D95C2A30
:100E800000F092802E2A18BF484507D3B9F1080F09
:100E900008BF2E2A77D00620BDE8F88F13067AD433
:100EA000222AF8D05D4C01E09A42F4D014F8013FB8
:100EB000002BF9D1A2F14103192B98BF4AF0020A85
:100EC00007D9A2F16103192B03D8203A4AF0010A8D
:100ED000D2B20A5417F80C2001302F2A18BF202A4A
:100EE0000CF1010CCBD80423202A67445DD80028DC
:100EF000D1D00A78E52A00F08C80B9F1080F04BF40
:100F00004FEA8A0A5FFA8AFA0AF00302012A0AF013
:100F10000C0A08BF43F01003BAF1040F08BF43F0F6
:100F20000803CB7230460021FFF7A8FD28BB3068CC
:100F30003169FFF717FD00BB75692A78002A39D09F
:100F400095F80BB00BF00803DBB283B9B1690B461F
:100F5000A94613F801CB944501F10B0407D1A34234
:100F600033D019F8012F13F801CB9445F7D0304650
:100F70000021FFF7C1FE0028D9D0B3690428DB7A2D
:100F80001AD0BDE8F88F4FEA8A0A5FFA8AFA082079
:100F90004FF00B096BE743F2D003803AC0F6000331
:100FA0004AF0030A9A5C7BE76744002300283FF479
:100FB00072AF9EE7B369DB7A03F00403D8B200286E
:100FC0000CBF05200420BDE8F88FCB7A03F00403A2
:100FD000DBB20BBB0BF0100B5FFA8BF3B3B13268D3
:100FE000E87E1278AB7E032A43EA002301BF2A7D04
:100FF000687D42EA002243EA0243B3603B7820E77F
:101000002146FFF73BFD7461BDE8F88F0520BDE880
:10101000F88F05220A7070E7BDE8F88FC03000082D
:1010200038B50446042518E02068FFF79BFC054608
:1010300000212046CDB962691378ABB1D27A2E2B4C
:1010400018BFE52B02F03F0203D00F2A01D0082A77
:1010500008D1FFF751FE054658B923691946002B00
:10106000E2D115B9284638BD04250023236128465E
:1010700038BD002305462361F9E700BF38B50021DC
:101080000446FFF7FBFC00282DD121692068FFF7FB
:1010900069FC40BB63691B78E52B18BF002B1BD193
:1010A00020682169FFF75EFCE8B96369014603F136
:1010B000200203F8011B9342FBD16369A26903F18B
:1010C0000B05013A12F8011F03F8011BAB42F9D1DD
:1010D000236801221A7138BD20460121FFF70CFE5A
:1010E0000028D2D038BD38BD012970B50D46044660
:1010F00002D98369994201D3022070BD0126294695
:101100002046FFF753FC03462946002205462046A9
:1011100083B1012BF0D001330ED0FFF70DFD002875
:10112000EBD123695A1C02D0013323616671A36994
:101130009D42E4D3002070BD012070BD4FF0C0601F
:10114000704700BF08B10B207047054B1A6802B109
:10115000107009B100220A7019600020704700BFAA
:101160007C0400202DE9F0438DB005460191164620
:10117000092448B10023036005A901A802F01E025A
:10118000FFF7D0F9044618B120460DB0BDE8F08352
:1011900002AB05A801990B93FFF73EFE06F01F086E
:1011A0000A9F30B116F01C0F01D004284CD0044621
:1011B000EAE7002F00F0918016F01C0F3AD1FB7A7D
:1011C00003F01002D2B2002A40F0838006F002023F
:1011D000D2B20AB1D9077AD406F00802D2B2059B7E
:1011E0000AB148F020081A6B85F806802F62EA6180
:1011F0001978F87EBA7E032908BF397D42EA0022B9
:1012000002BF787D41EA002142EA01422A61B97FAA
:1012100097F81FC03E7F787FDA882B60090441EA87
:101220000C613143002341EA0021E960AB60AB610E
:10123000AA80A9E7FB7A13F0110F48D106F0040643
:10124000F6B24EB108249FE705A8FFF717FF48F054
:1012500008080A9F0028AAD108F00803DBB2002B77
:1012600039D000220621059B7974BA73FA733A7457
:10127000FA723A777A77BA77FA771A78B97EFE7E79
:10128000032A08BF3A7D41EA062602BF797D42EA79
:10129000012246EA02460022BA76FA763A757A7553
:1012A00001221A71002E9CD018463146D3F8309096
:1012B000FFF71AFF00287FF47AAF0598013EC66059
:1012C0004946FFF74FFB059B00288AD06FE70724AC
:1012D0005AE7042458E7059B85E7062454E700BF36
:1012E0002DE9F04F9B46002383B0CBF80030074632
:1012F0000C461546FFF7BAF8814650B9BB79190676
:1013000048BF4FF0020904D4DA0758BF4FF007096D
:1013100003D4484603B0BDE8F08FBE68FB689B1B52
:101320009D4234BFA8469846B8F1000FF1D007F1AE
:10133000240AF505ED0D002D34D13B689A78013A69
:1013400002EA562212F0FF024AD0786999690238FF
:101350000239884252D3BB7963F07F03BB714FF0EF
:101360000209D6E7BA69AA4218D0B97901F040015A
:10137000C9B259B1587851460123FFF705F8002842
:101380006BD1BA793B6822F04002BA715878514665
:101390002A460123FEF7E0FF00285ED1BE68BD614A
:1013A000F505ED0DC5F50072424528BF42462035D2
:1013B0007D19234642B10335A31815F8016F04F8CF
:1013C000016B9C42F9D1BE68DBF80010B618891891
:1013D000B8EB0208BE601C46CBF80010A9D198E714
:1013E000002E41D138690128B5D9431C35D03B685E
:1013F00078619969023802398842ACD29978DD6AFD
:1014000001FB0055002DA6D05FEA58261544A9D04F
:101410009019884288BFC2EB010658782146F3B282
:101420002A46FEF799FFBB79C0B903F04003DBB24F
:101430007BB1BB695D1BAE420BD904EB452507F1BF
:10144000230305F5007113F8012F05F8012B8D42D8
:10145000F9D17202A318BE68B6E7BB7963F07F03C7
:10146000BB714FF0010954E7796901921846FFF703
:101470009DFA019AB7E700BF2DE9F04F9846002387
:1014800083B0C8F80030044689461646FEF7EEFFE2
:10149000074638B9A3791A0608D403F00202D2B27B
:1014A00032B90727384603B0BDE8F08F0227F9E7C5
:1014B000E168A268CE4206D3914243F0200338BFD0
:1014C000E260A371EEE7002EF6D004F1240301934D
:1014D00004F50975D305DB0D002B36D1236893F88D
:1014E00002A00AF1FF3A0AEA522A1AF0FF0A0DD1C5
:1014F000002A40F098802069002800F09F80012891
:1015000011D0431C00F0898023686061A27902F049
:101510004002D2B2002A73D161699A69A1F1020B2B
:10152000023A934538D3A37963F07F03A37102276E
:10153000B8E7A2695A45A26803D0E1688A42C0F0C0
:101540008680D305C4F818B0DB0DC3F5007CB44524
:1015500028BFB446E3182433BCF1000F0AD009F1C8
:10156000FF3203EB0C0012F8011F03F8011B83424A
:10157000F9D1A268A37943F04003A371D8F80030F1
:1015800062446344B6EB0C06A260E144C8F8003044
:10159000A0D1E168A3798FE79978DA6A0BFB012281
:1015A000002AC0D05FEA562C0AEB020BC1D00AEB2E
:1015B0000C028A4288BFCAEB010C5878CDF800C0F3
:1015C0005FFA8CF349465A46FEF7DEFEDDF800C0AE
:1015D00018BBA369CBEB030BDC450DD909EB4B2200
:1015E000019B013A12F8011F03F8011BAB42F9D12C
:1015F000A37923F04003A3714FEA4C2CA268BDE706
:101600005878A26901990123FEF7BEFE28B9A27994
:10161000236822F04002A2717EE7A37963F07F0382
:10162000A37101273EE718466169FFF70DFB00280B
:101630007FF465AFA268E168A3793DE7184651469B
:10164000FFF702FB206100287FF459AFF2E75878DA
:1016500001995A460123FEF77FFE0028DDD1A268DA
:101660006FE700BF70B50446FEF700FFE0B9A3794D
:1016700003F02002D2B2BAB103F04003DBB26BB187
:101680002146A26951F8240B01234078FEF77CFE25
:10169000002834D1A37923F04003A3712068E169C5
:1016A000FFF760F9024602B170BD236AD97A41F0B2
:1016B0002001D972E1681977A189090A5977E1896E
:1016C0009977E17BD97721699A75080C9976C1F3EE
:1016D0000726050A0621DE7618755D75DA751A7615
:1016E00059769A74DA74A279236822F02002A271E2
:1016F00001221A712068BDE87040FFF7D1B80120BF
:10170000D2E700BF10B50446FFF7ACFF00B9206078
:1017100010BD00BFF8B504460D46FEF7A7FE06460D
:10172000002851D1A3791A0650D4E268AA4205D202
:1017300003F00203DBB2002B08BF15460023A268AA
:10174000A360002D40D0206887787F023AB1013A2B
:10175000691EB1FBF7F1B2FBF7F3994279D2226926
:10176000002A36D06261002A43D1A1681546CB0514
:10177000DB0D002B73D0A269AA4270D0A37903F0CD
:101780004003DBB204F1240763B12746012357F875
:10179000241B48783946FEF7F7FDA37920BB23F0D8
:1017A0004003A3712368394658782A460123FEF77F
:1017B000D3FDC0B9A168E368A561994204D9A379B2
:1017C000E16043F02003A3713046F8BD02263046A5
:1017D000F8BD1146FFF738FA0128024633D0013030
:1017E00018BF2261BED1A37963F07F03A3710126E4
:1017F000EAE7BD4298BFA16835D9236811E0FFF739
:1018000023FA024668B3511CEDD0012A1BD9236884
:1018100099698A4217D2A16862617918AF42A160C2
:1018200021D294F806E00EF0020E5FFA8EFEED1B58
:1018300018461146BEF1000FE1D111461846FFF7D8
:10184000B5F80246DFE7A37963F07F03A3710226B0
:10185000BAE77B421A40A260AD1A626983E7E36887
:10186000ABE7A1683D46EB054919DB0DA16073B1FB
:1018700023689869023A02388242E4D29878DB6A97
:1018800000FB0232002ADED002EB55256FE71D4631
:101890006DE700BF30B587B004460191092044B11F
:1018A00001A821460022FEF73DFE256818B100235D
:1018B000236007B030BD03ABA36120460199FFF759
:1018C000ABFAD8B963699BB1DA7A02F01002D2B2EE
:1018D000CAB12978D87E9A7E032904BF597D1B7D21
:1018E00042EA002204BF43EA012342EA0342A26023
:1018F000EB882046A3800021FFF7C0F8042802D01F
:101900000028D6D0D3E70520D1E700BF70B584B05A
:1019100005460E46FEF7AAFD044658B9D6B101ABFE
:10192000AB612846FFF77CFB042808BF2C6104D07C
:1019300018B10446204604B070BD31462846FEF773
:1019400051FD00212846FFF7D7F90428F1D10023E3
:101950002B61EFE721462846FFF790F80446E9E7B8
:1019600030B58DB00CAB0D4643F82C0D05A91846CB
:101970000022FEF7D7FD044610B120460DB030BD61
:1019800002AB05A801990B93FFF746FA044600281D
:10199000F3D10A9B23B105A82946FEF723FDECE706
:1019A0000624EAE72DE9F04F83B002AB144643F872
:1019B000040D8846184611460022FEF7B3FD25683F
:1019C000064680BBAC692B69A21E934298BFC8F83B
:1019D000003028D995F80090B9F1010F44D0D5F81E
:1019E00024C00346024607460AB3B9F1020F2DD0C0
:1019F000987893F803B093F800A05978000440EA6F
:101A00000B6040EA0A0040EA012020F0704000B973
:101A100001370433043A013CE6D1B9F1030F2F61D9
:101A20001DD0C8F80070304603B0BDE8F08F2846DE
:101A300061460CF1010AFEF795FF48BBB9F1020FB0
:101A400005F13403D4464FF40072D1D15878197897
:101A500051EA002108BF01370233023ADBE70123D4
:101A60006B71C8F80070DEE702240746214628465D
:101A7000FEF79CFF0134411C0CD001280CD000B9AA
:101A80000137AB699C42F1D32F61C8F80070CAE7F7
:101A90000646C2E70126F7E70226F5E770B50546D8
:101AA000FEF7E4FC0446D0B9AB791A061CD403F067
:101AB0000202D2B2AAB1AE68EA68B2420FD943F0CC
:101AC0002003EE60AB7128688EB92969FFF70CFB23
:101AD0002E6104461CB1AB7963F07F03AB712046E5
:101AE00070BD0724204670BD0224204670BD696980
:101AF000FEF75CFF0646013015D0012E11D0286894
:101B000083699E42EBD269696FF07042FFF714F867
:101B100004460028DFD128683146FFF7E5FA04467D
:101B2000D8E70224D7E70124D5E700BF30B595B048
:101B300014AB06A943F84C0D01221846FEF7F2FC3F
:101B400008B115B030BD03AB06A801990C93FFF79F
:101B500063F90028F5D10B9B06202BB1DA7A12F03D
:101B6000010F0CBF00200720069A997E1278DD7EB7
:101B7000032A41EA052501BF1A7D597D42EA012267
:101B800045EA02450028DCD1DB7A03F01003DBB222
:101B9000B3B1012D25D903460DAC06A9CA5CE254A8
:101BA00001331C2BF9D1204602210F95FEF766FF69
:101BB0000028C6D12046FFF733FAA0B10428C0D1CF
:101BC00006A8FEF7A5FF0028BBD11DB90698FEF7B1
:101BD00067FEB6E706982946FFF786FA0028B0D1D7
:101BE000F4E70220ADE70720ABE700BF2DE9F04F97
:101BF0008FB00EAB012243F82C0D07A91846FEF753
:101C000091FC0246044618B110460FB0BDE8F08FB3
:101C100004AB07A803990D93FFF7FEF802460028CE
:101C200000F0A1800428EFD107982146FFF70CF8B7
:101C30008046002800F099800222012800F096805A
:101C40000122B0F1FF3F00F091800798FEF7FEFD02
:101C50000246002840F08A80079EB169A8F102037D
:101C600002398B423CBFB178F26A06F1340534BFC9
:101C700001FB0329914606F50D742B46002203F85B
:101C8000012BA342FBD106F13F002B46202203F893
:101C9000012B8342FBD100234FEA184A4FEA1A2056
:101CA000C8F307275FFA88F12E225FFA8AFA4FF00D
:101CB000100E86F84A3086F84B3086F84C300623F2
:101CC00086F84D308DF80A7086F84F708DF80B004D
:101CD00086F84900019186F8342086F83FE086F8BE
:101CE0004E1086F848A006F15403284606F1740702
:101CF00001E010F8012F03F8012BBB42F9D12E238C
:101D0000079886F855300378099A032B55D04FEA87
:101D1000124ED7B25FFA8EF3C2F307224FEA1E2E9D
:101D200086F86E7086F86F2086F8683086F869E06D
:101D3000837813B3013BDFB201374F4401264FF0E4
:101D4000000BC0F830900671FEF780FD09F1010923
:101D5000024658B92A4602F801BBA242FBD1B94556
:101D60000BD00798EDE708224EE70722079800926C
:101D70004146FFF7B9F9009A46E707A8FFF77EF951
:101D800002460028F2D10C9B07999A75DA751A76EB
:101D900006225A76019A83F814A09A769DF80A20B2
:101DA000DA769DF80B201020D8725A750123084668
:101DB0000B71FEF775FD024626E7836A9342A6D1B2
:101DC0004FF0000E734672467746A9E730B58DB0E6
:101DD0000CAB0C4643F82C0D1546184605A90122FC
:101DE000FEF7A0FB08B10DB030BD02AB05A801990C
:101DF0000B93FFF711F80028F5D10A9B0620002B62
:101E0000F1D0D97A059A05F0270521EA0501254088
:101E10000D43DD72012310461371FEF741FDE2E729
:101E200010B58CB00CAB0C4643F82C0D05A9184628
:101E30000122FEF777FB08B10CB010BD02AB05A87C
:101E400001990B93FEF7E8FF0028F5D10A9B0620C5
:101E5000002BF1D0E188059A9975E188090AD975B6
:101E6000A1881976A188090A5976012310461371B1
:101E7000FEF716FDE0E700BF70B59AB01AAB0CADE7
:101E800043F8640D0E46184629460122FEF74AFB28
:101E900008B11AB070BD0C9B01991393284603AB8F
:101EA0001293FEF7B9FF0028F3D1119A0420002AFB
:101EB000EFD00A3206AB0DF12D0112F8014F03F8F5
:101EC000014B8B42F9D1002313ACEA5CE25401339D
:101ED0001C2BFAD120463146FEF79EFF00284ED03B
:101EE0000428D6D12046FFF7C9F80028D1D1189C84
:101EF0000DF1190204F10D0304F1200012F8011F85
:101F000003F8011B8342F9D19DF818300C9843F077
:101F10002003E37201230371159B0E9A9A4225D088
:101F2000E37A03F01003DBB203B30278E17EA37E11
:101F3000032A08BF227D43EA012302BF617D42EAF2
:101F4000012243EA02438269023B023A934218D2D9
:101F50008178C26A01FB032199B1FEF703FD0C9B56
:101F6000002896D193F855202E2A0CD02846FEF74B
:101F7000CFFD00288DD10C98FEF792FC89E7082050
:101F800087E7022085E71A78032A159A0FD01046B2
:101F9000020C110AC0F3072483F86820012283F899
:101FA0006E0083F86F4083F869101A71DEE7996A52
:101FB0008A42ECD1ECE700BF4FF46053C4F2020355
:101FC00070B4196B41F00F011963196C41F40A11D7
:101FD00041F021011964596C4FF44062C4F20202CD
:101FE00041F4A0415964136843F0AA431360936815
:101FF00043F0AA43936000BF516948F2A06341F4E3
:1020000070415161C0F2010300BF013BFCD14FF4AC
:102010004060C4F20200002241690905C4F20202D4
:10202000090D4161116821F47C4121F030011160FA
:10203000116841F4284141F010011160916841F4A8
:10204000284141F020019160146A4FF4405144F05E
:10205000AA44C4F2010144F4A00414620C88A4B29E
:1020600044F45D740C8004211183116821F0030194
:102070001160116A21F00F011162116841F40071C1
:102080001160146A4FF48061C4F2020144F4C02468
:1020900014620A6822F443220A600A6842F40222A7
:1020A0000A608A6842F402228A604A6842F4107226
:1020B0004A60CA6842F48222CA600A6A42F08062B8
:1020C0000A624C6A4FF40062C4F2020244F0400417
:1020D0004C62116821F07C7121F44041116011685B
:1020E00041F0287141F400411160916841F028717C
:1020F00041F400419160116A41F0C0411162516A9E
:1021000041F4CC2141F4C0615162026842F0AA421C
:1021100042F490720260866846F02A464FF0804191
:1021200046F408768660012522264FF4A0528D8160
:10213000C4F200020E8505241C26CE620C8002210A
:102140009581118545F20821D1621480026842F41C
:1021500020520260826842F420528260046A4FF486
:102160006051C4F2010144F0EE644FF47052046215
:10217000C4F2010288688B60116829431160D0683D
:102180004FF4A841C4F200012843D06048F208424D
:102190000A802A228A8048F2D2028A8329220A846B
:1021A00008884FF4884280B2C4F2000228430880B5
:1021B00040F2D92111812C2191811382938240F226
:1021C0000113138393899BB243F40053938170BC32
:1021D000704700BF03885B045B0C03800823038007
:1021E0002A23838048F2D20383832923038403882C
:1021F0009BB243F001030380704700BF03889BB28A
:1022000043F480730380038BDA07FCD500BF94236B
:102210000382838A03F08203002BFAD0038B5B07CF
:10222000FCD000BF0182838A03F08203002BFAD026
:10223000038B5A07FCD000BF03889BB243F40073A2
:102240000380038BDB07FCD403889BB243F48073C9
:102250000380038BD907FCD595230382838A03F07F
:102260008203002BFAD0038B5A07FCD000BF0388EF
:1022700023F480631B041B0C0380838A03F0400358
:102280009BB2002BF9D000BF03889BB243F40073CC
:102290000380038BDB07FCD4008AC0B2704700BF09
:1022A00003889BB243F480730380038BDB07FCD568
:1022B00000BF94230382838A03F08203002BFAD0A9
:1022C000038B5B07FCD000BF0182838A03F082038B
:1022D000002BFAD0038B5907FCD000BF0282838AFF
:1022E00003F08203002BFAD0038B5B07FCD000BF06
:1022F00003889BB243F400730380038BD907FCD49B
:10230000704700BF4FF47053C4F2000300221A80DC
:1023100040F206221A844FF460629A83704700BF2D
:1023200000BF4FF48843C4F200031A8802F0200271
:1023300092B27AB199881A8802F0200292B2C9B298
:10234000002AF7D1054B19704FF48843C4F20003FB
:1023500099807047014B1978F6E700BFAC06002062
:102360004FF4705040F2AD62C2F2000240F2B0632E
:10237000C4F201000121C2F2000341611170002288
:102380001A6070474FF080424FF44063C4F202037A
:10239000002130B41182164A5969127881F4005133
:1023A000596112B313484FF470510468C4F200012C
:1023B000A5B28D810A8902F002024FF4705392B2E5
:1023C000C4F20003002AF5D09D811A8902F00202AE
:1023D00092B2002AF9D0084B1B68E318B3F5004FFE
:1023E000036002D3034B00221A6030BC704700BF69
:1023F000A5060020A8060020040000200B4A4FF488
:10240000A053C4F20003117800201882084B49B988
:102410001968322905D900211960064B1170012273
:102420001A707047196801311960F2E7AD06002093
:10243000B0060020A406002082B00190019B5A1E25
:102440000192002BFAD102B0704700BF41184FF43F
:1024500080528842C4F201020AD010F8013B9380F6
:10246000138803F040039BB2002BF9D08842F4D1CB
:10247000704700BFF0B54FF44064C4F2020483B06B
:1024800000250195FFF798FD6369394E43F48053A9
:102490006361FDF7DBFE636943F400536361FDF79D
:1024A00035FF636943F480436361FDF72DFF636982
:1024B00043F400436361FDF7DDFE61690905090D21
:1024C00061614FF461432B49CEF2000301270F7085
:1024D000202183F82613402210215A6083F8061326
:1024E0001A604FF0805283F81C531A60302283F830
:1024F00037234FF400025A602846FDF70DFF2846A7
:102500001D49FEF71FFE1D4930703A461C48FEF774
:1025100029FE307000BF00B31A4D4FF44064194FCC
:10252000C4F20204002606E063693E7083F480432F
:102530006361FDF7D7FE62692B78002082F40042C8
:1025400001466261002BEFD14FF44063C4F20203F5
:102550005A6982F400425A61FAE709480A49094D6A
:1025600040F6690201ABFEF7BBFE3070D5E700BF55
:1025700024490020A5060020B406002050310008A0
:1025800080040020A40600201009002070B5194C1A
:102590002378012B07D000200146164A00F074F87A
:1025A0002378012BF7D13B200021124A124D00F075
:1025B0006BF8082040F2A5110E4A00F065F855238B
:1025C000237000232B60372000210A4A00F05CF8BA
:1025D00029204FF08041074A00F056F82B682678F2
:1025E00001332B60002EEED1082000F013F800BF5D
:1025F000304670BDEC080020E8080020002070473D
:10260000012A01D900F0DCB900F066B9002070475A
:10261000002070474FF44053C4F2010300F00F0054
:102620001A8822F078021204120C1A80198840F0DD
:10263000080289B241EAC2021A80188880B2D0F139
:10264000010038BF0020704770B40023451E061DEE
:1026500015F8012F08215B00DBB282EA030401397F
:10266000520014F0800F18BF83F0090311F0FF012E
:10267000D2B2F0D1B54203F07F03E9D15B00013360
:10268000437170BC704700BFF0B540F04003904DFF
:10269000DFF840C22971DBB283B00E0C002407467C
:1026A0004FEA112E080E402BAE700194CCF800506A
:1026B0002B7085F803E06870164600F0D880284635
:1026C000FFF7C2FF0023C4F2020304225A83322020
:1026D000FFF7B2FE4FF44051C4F20101FF238B819A
:1026E0000A894FF44053D007C4F20103F8D59B89FF
:1026F00000230193019B052B9CBF4FF44054C4F26F
:10270000010410D8019BEB5CA38121894FF4405355
:10271000C907C4F20103F8D59B89019B01330193DA
:10272000019B052BEED94FF44051C4F20101FF2368
:102730008B810A894FF44053D207C4F20103F8D5C4
:102740009C89E4B23B2F3AD8DFE807F01E393939CB
:10275000393939397539393948393939391E1E39D4
:10276000393939391E1E393939393939393939390F
:1027700039393939393939393939393939393939C9
:102780003939391E3939391E4FF44051C4F201012B
:10279000FF238B810A894FF44053D407C4F201030D
:1027A000F8D59A893270FF2219469A810A894FF426
:1027B0004053D007C4F20103F8D59C89E4B2192F25
:1027C0002FD80023012202FA07F7C0F206333B405C
:1027D000002B26D004B900BF03B0F0BD4FF4405128
:1027E000C4F20101FF205CB188810A894FF4405393
:1027F000D207C4F20103F8D59B8913F0FF0FF3D180
:102800004FF44051C4F20101FF2088810A894FF43E
:102810004053D407C4F20103F8D59C89E4B2002CDC
:10282000F3D03220FFF708FE0023C4F20203042293
:102830001A8300BFCEE700230193019B042BF0D83D
:102840004FF44050C4F20100FF25858101894FF407
:102850004053CA07C4F20103F8D59A89019B06F8D0
:10286000012B01330193019B042BEED9D9E72346B9
:10287000C4F2020395226A7104225A833220FFF7C0
:10288000DBFD4FF44053C4F201031A8822F07802B2
:102890001204120C1A801A8892B242F070021A8046
:1028A0000194019A092A3FF623AF1C46FF22A28118
:1028B00021894FF44053C907C4F20103F8D59B891D
:1028C000019B01330193019B092BF0D910E700BF55
:1028D000284900200800002038B5364B04461A6805
:1028E0001120FFF7D1FE4FF44051C4F20101FF2047
:1028F00088810A894FF44053D507C4F20103F8D503
:102900009A89D2B2FF2AF3D1194615468D810A89D8
:102910004FF44053D007C4F20103F8D59889C0B2F0
:10292000FF28F3D004F500751946FF2088810A8935
:102930004FF44053D207C4F20103F8D59A8904F842
:10294000012BAC42F2D11C4A4FF400711160FF22FE
:1029500019469A810A894FF44053D007C4F2010303
:10296000F8D59889FF2280B29A8119460A894FF4D6
:102970004053D207C4F20103F8D59A8992B242EAD1
:1029800000210E4A1160FF2219469A810A894FF4EC
:102990004053D007C4F20103F8D532209B89FFF7DA
:1029A0004BFD0023C4F2020304221A8300BF00205F
:1029B00038BD00BFF4080020FC08002000090020FA
:1029C000434B2DE9F0471E6881469046122032465F
:1029D000FFF75AFE4FF44051C4F20101FF208881F5
:1029E0000A894FF44053D407C4F20103F8D59A89F9
:1029F000D2B2FF2AF3D1194614468C810A894FF4CA
:102A00004053D207C4F20103F8D59889C0B2FF2819
:102A1000F3D0DFF8C8C00022CCF80020B8F1000FD6
:102A200044D04FF0FF0E7746754609F5007A4C46C4
:102A30009D8118894FF44051C007C4F20101F8D5B7
:102A4000888904F8010B5445F2D1A146A1F80CE0A5
:102A500018894FF44051C407C4F20101F8D58C899C
:102A6000A1F80CE0A4B218894FF44051C007C4F299
:102A70000101F8D5898989B241EA04209F811C8926
:102A80004FF4405114F0010FC4F20101F7D08989CD
:102A9000C9B2FE29F2D101324245C6D10D4BCCF864
:102AA00000204FF400721A600B4B18603246002170
:102AB0000C20FFF7E9FD3220FFF7BEFC0023C4F233
:102AC000020304221A8300BF0020BDE8F08700BF84
:102AD0000809002004090020F80800200C09002043
:102AE00001207047012070470749084A084B9A4265
:102AF000BEBF51F8040B42F8040BFFF7F8BF0548BE
:102B000080470548004700007031000800000020A1
:102B100058040020D52B0008DD010008FEE7FEE781
:102B2000FEE7FEE7FEE7FEE7FEE7FEE7FEE7FEE77D
:102B3000FEE7FEE7FEE7FEE7FEE7FEE7FEE7FEE76D
:102B4000FEE7FEE7FEE7FEE7FEE7FEE7FEE7FEE75D
:102B5000FEE7FEE7FEE7FEE7FEE7FEE7FEE7FEE74D
:102B6000FEE7FEE7FEE7FEE7FEE7FEE7FEE7FEE73D
:102B7000FEE7FEE7FEE7FEE7FEE7FEE7FEE7FEE72D
:102B8000FEE7FEE7FEE7FEE7FEE7FEE7FEE7FEE71D
:102B9000FEE7FEE7FEE7FEE7FEE7FEE7FEE7FEE70D
:102BA000FEE7FEE7FEE7FEE7FEE7FEE7FEE7FEE7FD
:102BB000FEE7FEE7FEE7FEE7FEE7FEE7FEE7FEE7ED
:102BC000FEE7FEE7FEE7FEE7FEE7FEE7FEE7FEE7DD
:102BD000FEE7FEE74FF46D42CEF200024FF4605381
:102BE000D2F88810C4F2020341F47001C2F88810D0
:102BF0001968002241F0010119609A60186843F2D7
:102C0000100120F08470C2F2004120F4803018607E
:102C10005960196882B021F480211960DA6000924D
:102C200001921A6842F480321A601A4603E0009B4F
:102C3000B3F5C06F09D0136803F400330193009B10
:102C400001330093019B002BF1D04FF46053C4F289
:102C500002031B6813F4003308BF019301D0012362
:102C60000193019B012B1DD04FF46052C4F202026C
:102C700044F2C0339168C2F2000321F40001916074
:102C8000C2F88430136843F08063136013681B013B
:102C9000FCD54FF46D43CEF200034FF000629A6012
:102CA00002B070474FF46053C4F202034FF4E042A5
:102CB000196CC4F2000241F080511964116841F4AA
:102CC000804111609A689A609A6842F400429A6062
:102CD000996846F60A1241F4A051C0F24072996018
:102CE0005A601A6842F080721A6019460A684FF4F6
:102CF00060539201C4F20203F8D54FF47052C4F24B
:102D0000020240F2056111609A6822F003029A60A3
:102D10009A6842F002029A609A6802F00C02082A4D
:102D2000FAD1A1E74FF46053C4F202039A6802F0AB
:102D30000C02042A14D0082A1CBF4FF41052C0F20F
:102D4000F40212D04FF46053C4F2020318499B6896
:102D5000C3F30313CB5C22FA03F2164B1A607047DD
:102D60004FF49052C0F27A02ECE75868596810F4B8
:102D7000800F586815BF4FF490534FF41053C0F2B2
:102D80007A03C0F2F40301F03F01B3FBF1F24FF418
:102D90006053C4F20203C0F388105B68C3F30143BD
:102DA000013302FB00F25B00B2FBF3F2CAE700BFA3
:102DB0000C0000201C0000200020704700207047FD
:102DC0000020704700207047002070472DE9F04137
:102DD000284C2568D5F8484184B00746002C43D0DC
:102DE00066681F2E1CDD244810B94FF0FF301FE02D
:102DF0004FF4C870039102920193AFF300800399DE
:102E0000029A019B04460028EFD0D5F848610020C3
:102E100060602660C5F84841C4F88801C4F88C0198
:102E2000656847B9AB1C013544F823106560002084
:102E300004B0BDE8F08104EB85080120022FD4F82E
:102E40008861C8F8083108BFD4F88C31C8F88820E8
:102E500000FA05F046EA000608BF1843C4F8886186
:102E600008BFC4F88C01DDE705F5A674C5F8484134
:102E7000B6E700BF603100080000000008B500217F
:102E8000044600F09DF8044B1868C36B03B19847E3
:102E9000204600F007F900BF6031000838B5084D42
:102EA000084C641BA41018BF05EB840504D055F82A
:102EB000043D9847013CFAD1BDE8384000F0FAB82B
:102EC000540400205804002070B50F4D0F4E761B9F
:102ED000B61007D0043D002455F8043F013498474C
:102EE000A642F9D10A4D0B4E761B00F0DDF8B61064
:102EF00008D0043D002455F8043F01349847A64209
:102F0000F9D170BD70BD00BF4C0400204C040020FE
:102F10004C0400205404002070B48407034642D0BF
:102F2000541E002A3DD0CEB203E0621E002C38D0E1
:102F3000144603F8016B9A071D46F6D1032C29D9D4
:102F4000CAB20F2C42EA022242EA024284BF2B4656
:102F5000264611D9103E1A605A609A60DA60103322
:102F60000F2EF7D8A4F1100323F00F0304F00F0481
:102F70001033032C1D440DD92E462346043B032B4E
:102F800046F8042BFAD8231F23F00303043304F07C
:102F90000304ED182CB1C9B22C1905F8011BA54288
:102FA000FBD170BC704705461446C7E7024B13B10E
:102FB000024800F071B87047000000009D2E000824
:102FC0002DE9F04F334B85B01B680290019303F558
:102FD000A4730F4603934FF00108019BDDF80CB07A
:102FE000D3F84861AEB175686C1E0CD406F188093F
:102FF0001F3509EB85057FB12B68BB420CD0013C26
:10300000043D631CF7D140F20001C0F20001002929
:1030100030D105B0BDE8F08F7368C9EB0502591EC9
:10302000B218A14252F8783C08BF746002D0002167
:1030300042F8781C002BE2D0D6F88811D6F804A00C
:1030400008FA04F20A420FD0D6F88C110A420DD1C8
:10305000029855F8801C984773685345BDD1DBF83A
:103060000030B342CBD0B8E79847F5E755F8800C6D
:103070009847F1E773684BB9336843B13046CBF8F2
:103080000030AFF30080DBF80060ABE73368B34695
:103090001E46A7E7603100080146002002460346AD
:1030A000FFF794BEFEE700BFF8B500BFF8BC08BC50
:1030B0009E467047F8B500BFF8BC08BC9E467047F6
:1030C000222A2B2C3A3B3C3D3E3F5B5D7C7F00003F
:1030D000809A90418E418F804545454949498E8F60
:1030E0009092924F994F555559999A9B9C9D9E9FAE
:1030F00041494F55A5A5A6A7A8A9AAABAC21AEAF3B
:10310000B0B1B2B3B4B5B6B7B8B9BABBBCBDBEBF47
:10311000C0C1C2C3C4C5C6C7C8C9CACBCCCDCECF37
:10312000D0D1D2D3D4D5D6D7D8D9DADBDCDDDEDF27
:10313000E0E1E2E3E4E5E6E7E8E9EAEBECEDEEEF17
:10314000F0F1F2F3F4F5F6F7F8F9FAFBFCFDFEFF07
:10315000303A546573742E545854000043000000F4
:08316000200000200000000027
:0831680074D0FF7F010000009C
:1031700000000000EE0200002849002000000000CE
:10318000000000000102030406070809007A030A90
:10319000000000000C03002074030020DC0300206A
:1031A000000000000000000000000000000000001F
:1031B000000000000000000000000000000000000F
:1031C000000000005C31000800000000000000006A
:1031D00000000000000000000000000000000000EF
:1031E00000000000000000000000000000000000DF
:1031F00000000000000000000000000000000000CF
:1032000000000000000000000000000000000000BE
:1032100000000000000000000000000000000000AE
:10322000000000000000000000000000000000009E
:10323000000000000000000001000000000000008D
:103240000E33CDAB34126DE6ECDE05000B00000052
:10325000000000000000000000000000000000006E
:10326000000000000000000000000000000000005E
:10327000000000000000000000000000000000004E
:10328000000000000000000000000000000000003E
:1035B000000000000000000020000020AD2F0008E7
:0835C000AD01000889010008BB
:0435C80000000000FF
:0400000508002AE9DC
:00000001FF
