:020000040800F2
:10000000000002202D5800086158000863580008BD
:10001000655800086758000869580008000000008B
:100020000000000000000000000000006B58000805
:100030006D580008000000006F5800087158000853
:100040007558000877580008795800087B58000850
:100050007D5800087F58000879460008835800083A
:100060008558000887580008895800088B580008F0
:100070008D5800088F5800089158000893580008C0
:100080009558000851470008995800089B580008E7
:100090009D5800089F580008A1580008A358000860
:1000A000A5580008A7580008A9580008AB58000830
:1000B000AD460008AF580008B1580008B358000812
:1000C000B5580008B7580008B9580008BB580008D0
:1000D000BD580008BF58000829460008C35800084A
:1000E000C5580008C7580008C9580008CB58000870
:1000F000CD580008CF580008D15800085D470008C7
:10010000D5580008D7580008D9580008DB5800080F
:10011000DD580008DF580008E1580008C146000813
:10012000E5580008E7580008E9580008EB580008AF
:10013000ED580008EF580008F1580008F35800087F
:10014000F5580008F7580008F9580008FB5800084F
:10015000FD580008FF58000801590008035900081D
:100160000559000807590008095900080B590008EB
:100170000D5900080F5900081159000813590008BB
:10018000155900081759000810B5054C237833B9E4
:10019000044B13B10448AFF300800123237010BD5A
:1001A0007C090020000000007075000808B5064BAF
:1001B0001BB106480649AFF300800648036813B137
:1001C000054B03B1984708BD00000000707500089A
:1001D00080090020780900200000000016202CA1D2
:1001E000ABBE2B488168C268002900D08D46002A2A
:1001F00001D002F5807A00218B460F462548264A19
:10020000121A06F001FD05F0FDFD152024A1ABBE7C
:100210002349002001B40B780131002B15D0202B8D
:10022000F9D0222B01D0272B01D11A4601E0202240
:10023000013902B401300B780131002B05D09A420C
:10024000F9D100224B1E1A70E5E76946024692007A
:100250006A446B469A4206D9043A14681D681560D0
:100260001C600433F6E76C460725AC43A5460446FC
:100270000D46002009490022002306F045F806F04B
:10028000E9F92046294604F0F3FA06F09BF800BF8E
:10029000040000207C0900203091002095650008B2
:1002A00014000020FF00000080B500AF4FF4406351
:1002B000C4F202034FF010025A8344F24020C0F20D
:1002C0000F0004F091FA4FF44063C4F202034FF0C0
:1002D00010021A8344F24020C0F20F0004F084FAA6
:1002E00080BD00BF80B582B000AF4FF00003FB714E
:1002F0004FF4A840C4F200004FF002014FF09E02FC
:1003000004F002F944F24020C0F20F0004F06CFA4D
:100310004FF4A840C4F200004FF000014FF09902E2
:1003200004F0F2F84FF4A840C4F200004FF0470187
:100330004FF0800204F0E8F84FF4A840C4F2000047
:100340004FF0320104F03EF80346FB71FB7963F095
:100350007F03FB71FB794FF4A840C4F200004FF01B
:1003600032011A4604F0D0F8FB7903F07F03FB71E9
:10037000FB794FF4A840C4F200004FF032011A4656
:1003800004F0C2F84FF4A840C4F200004FF000019E
:100390004FF0000204F0B8F84FF4A840C4F2000097
:1003A0004FF004014FF0AF0204F0AEF84FF4A84054
:1003B000C4F200004FF0080104F004F80346FB719A
:1003C000FB7923F00F03FB71FB794FF4A840C4F2D3
:1003D00000004FF008011A4604F096F84FF4A840C8
:1003E000C4F200004FF0090103F0ECFF0346FB717B
:1003F000FB7923F00F03FB71FB794FF4A840C4F2A3
:1004000000004FF009011A4604F07EF84FF4A840AE
:10041000C4F200004FF0060103F0D4FF0346FB7165
:10042000FB7923F01F03FB71FB7943F01003FB7191
:10043000FB7943F00403FB71FB7943F00303FB7189
:10044000FB794FF4A840C4F200004FF006011A46B1
:1004500004F05AF84FF4A840C4F200004FF0220113
:100460004FF0E00204F050F84FF4A840C4F200004E
:100470004FF023014FF0E00204F046F84FF4A8409B
:10048000C4F200004FF01F014FF0560204F03CF898
:1004900007F10807BD4680BD80B582B000AF786027
:1004A00039604FF4A840C4F200004FF01C014FF037
:1004B000710204F029F84FF4A840C4F200004FF094
:1004C0001E014FF0400204F01FF807F10807BD4677
:1004D00080BD00BF80B500AF04F084F880BD00BFD0
:1004E00080B500AF4FF4A840C4F2000003F03EFF17
:1004F00080BD00BF80B584B000AF0346FB714FF0F4
:100500000003FB60FB79012B0CD0022B11D0002BD8
:1005100013D104F09FFB0346FB60FB68FB724FF0B6
:1005200000030CE005F0F0FBF860FB68FB72FB7A5F
:1005300005E0FB68FB72FB7A01E04FF0010318460F
:1005400007F11007BD4680BD80B584B000AF0346FB
:10055000FB714FF00003FB60FB79012B11D0022BE4
:1005600002D0002B04D013E0FB68FB72FB7A11E091
:1005700004F0DEFB0346FB60FB68FB724FF00003F8
:1005800008E005F0CFFBF860FB68FB72FB7A01E046
:100590004FF00103184607F11007BD4680BD00BFAC
:1005A00080B586B000AFB9607A600246FA73BB735B
:1005B0004FF000037B61FB7B012B15D0022B02D097
:1005C000002B04D01BE07B69FB74FB7C19E0BB7B38
:1005D000B86879681A4604F0B9FB03467B617B6909
:1005E000FB744FF000030CE0BB7BB86879681A46D7
:1005F00005F0A6FB78617B69FB74FB7C01E04FF0A2
:100600000403184607F11807BD4680BD80B586B0C3
:1006100000AFB9607A600246FA73BB734FF0000313
:100620007B61FB7B012B14D0022B02D0002B04D06A
:100630001AE07B69FB74FB7C18E0BB7BB8687968C7
:100640001A4604F0A5FB03467B617B69FB74FB7CC7
:100650000CE0BB7BB86879681A4605F083FB7861CB
:100660007B69FB74FB7C01E04FF00403184607F143
:100670001807BD4680BD00BF80B584B000AF0B46F3
:100680003A600246FA71BB714FF00003FB60FB79E0
:10069000012B13D0022B02D0002B04D018E0FB68F2
:1006A000FB72FB7A16E0BB791846396804F082FBCE
:1006B0000346FB60FB68FB72FB7A0BE0BB791846D4
:1006C000396805F061FBF860FB68FB72FB7A01E0BA
:1006D0004FF00403184607F11007BD4680BD00BF68
:1006E00080B487B000AFF860B9607A60FB687B6166
:1006F000BB683B610BE03B691A787B691A707B69C8
:1007000003F101037B613B6903F101033B617B68FA
:10071000002B0CBF00230123DBB27A6802F1FF3209
:100720007A60002BE7D107F11C07BD4680BC7047FB
:1007300080B487B000AFF860B9607A60FB687B6115
:1007400007E0BB68DAB27B691A707B6903F10103C9
:100750007B617B68002B0CBF00230123DBB27A682E
:1007600002F1FF327A60002BEBD107F11C07BD4686
:1007700080BC704780B489B000AFF860B9607A601F
:10078000FB68FB61BB68BB614FF000037B6100BF8E
:100790007B68002B0CBF00230123DBB27A6802F1D7
:1007A000FF327A60002B16D0FB691B781A46BB69B2
:1007B0001B78D31A7B617B69002B14BF00230123B4
:1007C000DBB2FA6902F10102FA61BA6902F10102CF
:1007D000BA61002BDCD17B69184607F12407BD46BE
:1007E00080BC704780B483B000AF7860396003E0AC
:1007F0007B6803F101037B607B681B78002B05D0CD
:100800007B681B781A463B689A42F1D17B681B785B
:10081000184607F10C07BD4680BC704780B584B010
:1008200000AF78607B681B79002B41D07B685B6BE5
:10083000FB607B685A787B6803F1380310461946E1
:10084000FA684FF00103FFF7E1FE0346002B02D0E8
:100850004FF001032EE07B684FF000021A717B68B5
:100860009A6AFB689A4223D87B689A6A7B681B6AFB
:10087000D218FB689A421BD97B68DB78BB6014E016
:100880007B681B6AFA68D318FB607B685A787B68C0
:1008900003F1380310461946FA684FF00103FFF7D9
:1008A000B5FEBB6803F1FF33BB60BB68012BE7D823
:1008B0004FF00003184607F11007BD4680BD00BF8A
:1008C00080B582B000AF786039607B685A6B3B6856
:1008D0009A421DD07868FFF7A1FF0346002B02D093
:1008E0004FF0010316E07B685A787B6803F1380308
:1008F000104619463A684FF00103FFF751FE0346D0
:10090000002B02D04FF0010304E07B683A685A6381
:100910004FF00003184607F10807BD4680BD00BF31
:1009200080B584B000AF78607868FFF777FF034642
:10093000FB73FB7B002B40F0AB807B681B78032BA9
:1009400040F097807B685B79002B00F092807B6899
:100950004FF000025A637B6803F1380318464FF0EA
:1009600000014FF40072FFF7E3FE7B684FF0550281
:1009700083F836227B684FF0AA0283F837227B681F
:100980004FF0520283F838207B684FF0520283F810
:1009900039207B684FF0610283F83A207B684FF082
:1009A000410283F83B207B684FF0720283F81C22DF
:1009B0007B684FF0720283F81D227B684FF0410282
:1009C00083F81E227B684FF0610283F81F227B6848
:1009D0001B69DAB27B6883F820227B681B699BB2B3
:1009E0004FEA13239BB2DAB27B6883F821227B683B
:1009F0001B694FEA1343DAB27B6883F822227B68D3
:100A00001B694FEA1363DAB27B6883F823227B68A1
:100A1000DB68DAB27B6883F824227B68DB689BB2F0
:100A20004FEA13239BB2DAB27B6883F825227B68F6
:100A3000DB684FEA1343DAB27B6883F826227B68CF
:100A4000DB684FEA1363DAB27B6883F827227B689E
:100A500059787B6803F138027B685B690846114668
:100A60001A464FF00103FFF7D1FD7B684FF00002FB
:100A70005A717B685B7818464FF000014FF0000216
:100A8000FFF7FAFD0346002B02D04FF00103FB7382
:100A9000FB7B184607F11007BD4680BD80B483B0CC
:100AA00000AF786039603B68A3F102033B607B686C
:100AB000DB69A3F102023B689A4202D84FF00003BF
:100AC00007E07B689B783A6802FB03F27B681B6B4C
:100AD000D318184607F10C07BD4680BC704700BF0D
:100AE00080B586B000AF786039603B68012B04D9CF
:100AF0007B68DA693B689A4202D84FF00103B8E09C
:100B00007B681B78022B52D0032B76D0012B40F050
:100B1000AE803B687B617B694FEA53037A69D318E7
:100B20007B617B689A6A7B694FEA5323D3187868A4
:100B30001946FFF7C5FE0346002B40F091807B6904
:100B40004FEAC3534FEAD3537A68D31893F8383037
:100B50003B617B6903F101037B617B689A6A7B6976
:100B60004FEA5323D31878681946FFF7A9FE0346C6
:100B7000002B77D17B694FEAC3534FEAD3537A688E
:100B8000D31893F838304FEA03233A6913433B6193
:100B90003B6803F00103002B03D03B694FEA1313BA
:100BA00004E03B694FEA03534FEA135361E07B686B
:100BB0009A6A3B684FEA1323D31878681946FFF7FF
:100BC0007FFE0346002B4FD13B684FEA43034FEAB9
:100BD000C3534FEAD35303F138037A68D318FB6049
:100BE000FB6803F101031B784FEA03239AB2FB6809
:100BF0001B7813439BB29BB23BE07B689A6A3B68CD
:100C00004FEAD313D31878681946FFF759FE034605
:100C1000002B2BD13B684FEA83034FEAC3534FEAC3
:100C2000D35303F138037A68D318FB60FB6803F1F0
:100C300003031B784FEA0362FB6803F102031B788E
:100C40004FEA03431A43FB6803F101031B784FEAA1
:100C500003231A43FB681B78134323F0704308E017
:100C600000BF04E000BF02E000BF00E000BF4FF0A3
:100C7000FF33184607F11807BD4680BD80B588B020
:100C800000AFF860B9607A60BB68012B04D9FB68DB
:100C9000DA69BB689A4203D84FF00203FB7711E18F
:100CA000FB681B78022B7ED0032B00F0A680012B63
:100CB00040F0F980BB68BB61BB694FEA5303BA6976
:100CC000D318BB61FB689A6ABB694FEA5323D318F8
:100CD000F8681946FFF7F4FD0346FB77FB7F002B0E
:100CE00040F0E580BB694FEAC3534FEAD35303F1A9
:100CF0003803FA68D3187B61BB6803F00103002B4B
:100D00000ED07B691B78DBB203F00F03DAB27B688D
:100D1000DBB24FEA0313DBB21343DBB2DBB201E019
:100D20007B68DBB27A691370BB6903F10103BB61B5
:100D3000FB684FF001021A71FB689A6ABB694FEABF
:100D40005323D318F8681946FFF7BAFD0346FB771B
:100D5000FB7F002B40F0AD80BB694FEAC3534FEAE5
:100D6000D35303F13803FA68D3187B61BB6803F0EF
:100D70000103002B04D07B684FEA1313DBB20FE0B2
:100D80007B691B78DBB223F00F03DAB27B684FEA92
:100D90001323DBB203F00F03DBB21343DBB2DBB28E
:100DA0007A6913708AE0FB689A6ABB684FEA13237A
:100DB000D318F8681946FFF783FD0346FB77FB7FDE
:100DC000002B78D1BB684FEA43034FEAC3534FEA85
:100DD000D35303F13803FA68D3187B617B68DAB226
:100DE0007B691A707B6903F101037A6892B24FEA5A
:100DF000122292B2D2B21A7060E0FB689A6ABB68A3
:100E00004FEAD313D318F8681946FFF759FD034684
:100E1000FB77FB7F002B50D1BB684FEA83034FEA7F
:100E2000C3534FEAD35303F13803FA68D3187B61F5
:100E30007B6903F103031B784FEA03627B6903F1CB
:100E400002031B784FEA03431A437B6903F1010352
:100E50001B784FEA03231A437B691B78134303F083
:100E600070437A6813437B607B68DAB27B691A70DF
:100E70007B6903F101037A6892B24FEA122292B2BF
:100E8000D2B21A707B6903F102037A684FEA124208
:100E9000D2B21A707B6903F103037A684FEA1262D7
:100EA000D2B21A700AE04FF00203FB7706E000BFEF
:100EB00004E000BF02E000BF00E000BFFB684FF0AD
:100EC00001021A71FB7F184607F12007BD4680BD5D
:100ED00080B584B000AF786039603B68012B04D9DD
:100EE0007B68DA693B689A4203D84FF00203FB73D0
:100EF0003FE04FF00003FB7332E078683968FFF79A
:100F0000EFFDB860BB68002B30D0BB68012B03D16C
:100F10004FF00203FB732CE0BB68B3F1FF3F03D13A
:100F20004FF00103FB7324E0786839684FF000024A
:100F3000FFF7A4FE0346FB73FB7B002B18D17B68F5
:100F40001B69B3F1FF3F09D07B681B6903F1010204
:100F50007B681A617B684FF001025A71BB683B6085
:100F60007B68DA693B689A42C7D802E000BF00E0BC
:100F700000BFFB7B184607F11007BD4680BD00BFD0
:100F800080B586B000AF786039603B68002B0ED129
:100F90007B68DB683B613B69002B04D07B68DA69C6
:100FA0003B699A4217D84FF001033B6113E0786820
:100FB0003968FFF795FDB860BB68012B02D84FF088
:100FC00001036DE07B68DA69BB689A4201D9BB68AE
:100FD00066E03B683B613B697B6100E000BF7B6989
:100FE00003F101037B617B68DA697B699A4209D866
:100FF0004FF002037B617A693B699A4202D94FF054
:1010000000034DE078687969FFF76AFDB860BB6856
:10101000002B0FD0BB68B3F1FF3F02D0BB68012BA0
:1010200001D1BB683CE07A693B699A42D6D14FF066
:10103000000335E000BF786879696FF07042FFF710
:101040001DFE0346FB73FB7B002B09D13B68002B85
:1010500006D0786839687A69FFF710FE0346FB739B
:10106000FB7B002B12D17B687A69DA607B681B6995
:10107000B3F1FF3F13D07B681B6903F1FF327B683C
:101080001A617B684FF001025A7108E0FB7B012B6B
:1010900002D14FF0FF3301E04FF001037B617B6928
:1010A000184607F11807BD4680BD00BF80B584B063
:1010B00000AF78600B467B807B687A88DA807B683B
:1010C0009B68FB60FB68012B05D07B681B68DA69B5
:1010D000FB689A4202D84FF002036DE0FB68002BD8
:1010E00008D17B681B681B78032B03D17B681B68C6
:1010F000DB6AFB60FB68002B16D17B68FA68DA605C
:101100007B681B681B897A889A4202D34FF00203DE
:1011100052E07B681B68DA6A7B884FEA13139BB244
:10112000D2187B681A6139E07B681B689B784FEAAC
:1011300003137B811DE07B681B681846F968FFF785
:10114000CFFCF860FB68B3F1FF3F02D14FF0010321
:1011500032E0FB68012B05D97B681B68DA69FB6804
:101160009A4202D84FF0020326E07A887B89D31A8C
:101170007B807A887B899A42DDD27B68FA68DA6064
:101180007B681B681846F968FFF788FC02467B8875
:101190004FEA13139BB2D2187B681A617B681A68F6
:1011A0007B8803F00F034FEA431303F13803D2188F
:1011B0007B685A614FF00003184607F11007BD46DF
:1011C00080BD00BF90B585B000AF786039607B68A6
:1011D000DB8803F101033B813B89002B03D07B6853
:1011E0001B69002B02D14FF00403CFE03B8903F0D1
:1011F0000F039BB2002B40F0B8807B681B6903F1A2
:1012000001027B681A617B68DB68002B09D17B686F
:101210001B681B893A899A42C0F0A7804FF00403EB
:10122000B4E03B894FEA13139BB21A467B681B68F4
:101230009B7803F1FF331340002B40F096807B68CE
:101240001A687B68DB6810461946FFF749FCF860AE
:10125000FB68012B02D84FF0020397E0FB68B3F163
:10126000FF3F02D14FF0010390E07B681B68DA6911
:10127000FB689A426DD83B68002B02D14FF0040303
:1012800084E07B681A687B68DB6810461946FFF7C4
:1012900077FEF860FB68002B02D14FF0070375E082
:1012A000FB68012B02D14FF002036FE0FB68B3F142
:1012B000FF3F02D14FF0010368E07B681B681846CE
:1012C000FFF7ACFA0346002B02D04FF001035DE0BC
:1012D0007B681B6803F1380318464FF000014FF498
:1012E0000072FFF725FA7B681C687B681B6818464C
:1012F000F968FFF7D3FB034663634FF00003FB720B
:1013000019E07B681B684FF001021A717B681B684B
:101310001846FFF783FA0346002B02D04FF0010373
:1013200034E07B681B685A6B02F101025A63FB7A56
:1013300003F10103FB727B681B689B78FA7A9A427F
:10134000DFD37B681B687A681268516BFA7A8A1A55
:101350005A637B68FA68DA607B681B681846F9682C
:10136000FFF79CFB02467B681A617B683A89DA804A
:101370007B681A683B8903F00F034FEA431303F1BC
:101380003803D2187B685A614FF00003184607F102
:101390001407BD4690BD00BF80B584B000AF786033
:1013A000396078684FF00001FFF780FE0346FB7359
:1013B000FB7B002B31D14FF00003BB607B681A68C8
:1013C0007B681B6910461946FFF77AFA0346FB73E0
:1013D000FB7B002B20D17B685B691B78E52B04D05D
:1013E0007B685B691B78002B08D1BB6803F10103A4
:1013F000BB60BA683B689A4203D10EE04FF000032D
:10140000BB6078684FF00101FFF7DCFE0346FB7319
:10141000FB7B002BD2D000E000BFFB7B184607F11E
:101420001007BD4680BD00BF80B485B000AF7860B6
:1014300039603B6803F11B031B784FEA03239AB220
:101440003B6803F11A031B7813439BB29BB2FB600A
:101450007B681B78032B12D13B6803F115031B78C3
:101460004FEA03239AB23B6803F114031B7813433A
:101470009BB29BB24FEA0343FA681343FB60FB68DD
:10148000184607F11407BD4680BC704780B483B08E
:1014900000AF786039607B6803F11A033A68D2B212
:1014A0001A707B6803F11B033A6892B24FEA12226A
:1014B00092B2D2B21A707B6803F114033A684FEA11
:1014C0001242D2B21A707B6803F115033A684FEAF0
:1014D000124292B24FEA122292B2D2B21A7007F1BD
:1014E0000C07BD4680BC704780B586B000AF786001
:1014F00078684FF00001FFF7D9FD0346FB75FB7DCF
:10150000002B01D0FB7D3BE07B681A687B681B6980
:1015100010461946FFF7D4F90346FB75FB7D002BF7
:101520002AD17B685B693B613B691B78FB73FB7B62
:10153000002B03D14FF00403FB7520E03B6903F15E
:101540000B031B7803F00803002B0AD17B689B690F
:10155000386919464FF00B02FFF70CF90346002BD0
:101560000CD078684FF00001FFF72CFE0346FB75A6
:10157000FB7D002BC8D002E000BF00E000BFFB7D78
:10158000184607F11807BD4680BD00BF80B586B07C
:1015900000AF786039604FF00403FB753AE07B6878
:1015A0001A687B681B6910461946FFF789F90346DC
:1015B000FB75FB7D002B32D17B685B693B613B692E
:1015C0001B78FB73FB7B002B03D14FF00403FB75EF
:1015D0002AE03B6903F10B031B7803F03F03BB7365
:1015E000FB7BE52B0CD0BB7B0F2B09D0BB7B082BE7
:1015F00014BF00230123DBB21A463B689A4210D085
:1016000078684FF00001FFF7DDFD0346FB75FB7DB9
:10161000002B08D17B681B69002BC0D104E000BF00
:1016200002E000BF00E000BFFB7D002B03D07B6821
:101630004FF000021A61FB7D184607F11807BD46FE
:1016400080BD00BF80B584B000AF786078684FF08F
:101650000101FFF7A1FE0346FB73FB7B002B24D1A6
:101660007B681A687B681B6910461946FFF728F9E2
:101670000346FB73FB7B002B17D17B685B69184625
:101680004FF000014FF02002FFF752F87B685A69D3
:101690007B689B69104619464FF00B02FFF720F854
:1016A0007B681B684FF001021A71FB7B184607F13B
:1016B0001007BD4680BD00BF80B584B000AF786024
:1016C0007B68DB8878681946FFF7F0FC0346FB73FC
:1016D000FB7B002B16D17B681A687B681B69104660
:1016E0001946FFF7EDF80346FB73FB7B002B09D18E
:1016F0007B685B694FF0E5021A707B681B684FF0EE
:1017000001021A71FB7B184607F11007BD4680BD28
:1017100080B588B000AF786039603B681B68FB60BB
:1017200003E0FB6803F10103FB60FB681B782F2BD0
:10173000F7D0FB681B785C2BF3D07B689B69BB60A0
:10174000B8684FF020014FF00B02FEF7F1FF4FF0A9
:101750000003FB774FF000033B613B697B614FF077
:101760000803BB61FA687B69D3181B782E2B38D12C
:10177000FA687B69D3181B78BB777B6903F1010397
:101780007B61BB7F2E2B0CD17B69022B09D8BA68F9
:101790003B69D318BA7F1A703B6903F101033B61BF
:1017A000E6E7BB7F2F2B08D0BB7F5C2B05D0BB7F30
:1017B000202B02D94FF00603BFE0FA687B69D218EC
:1017C0003B681A60BB6803F10B02BB7F202B02D879
:1017D0004FF0240301E04FF0200313704FF000039B
:1017E000ABE0FA687B69D3181B78BB777B6903F1A0
:1017F00001037B61BB7F202B63D9BB7F2F2B60D084
:10180000BB7F5C2B5DD0BB7F2E2B03D03A69BB69BD
:101810009A4214D3BB69082B02D1BB7F2E2B02D076
:101820004FF0060389E04FF008033B614FF00B03D4
:10183000BB61FB7F4FEA8303FB7700BFD1E7BB7F30
:101840005BB2002B0CDAFB7F43F00303FB77BB7F1B
:10185000A3F1800247F2C043C0F600039B5CBB7754
:10186000BB7F47F24050C0F600001946FEF7BAFFB2
:101870000346002B02D04FF006035EE0BB7F402BF7
:1018800007D9BB7F5A2B04D8FB7F43F00203FB77B9
:101890000DE0BB7F602B0AD9BB7F7A2B07D8FB7F7B
:1018A00043F00103FB77BB7FA3F12003BB77BA684A
:1018B0003B69D318BA7F1A703B6903F101033B619E
:1018C0008FE7FA687B69D2183B681A60BB7F202BD0
:1018D00002D84FF0040301E04FF00003BB773B69EF
:1018E000002B02D14FF0060327E0BB681B78E52BE5
:1018F00003D1BB684FF005021A70BB69082B03D1F6
:10190000FB7F4FEA8303FB77FB7F03F00303012B8D
:1019100003D1BB7F43F01003BB77FB7F03F00C03C5
:10192000042B03D1BB7F43F00803BB77BB6803F1F3
:101930000B03BA7F1A704FF00003184607F1200717
:10194000BD4680BD80B400AF4FF0C0631846BD46B1
:1019500080BC704780B489B000AF786039603B6864
:1019600003F10903BB617B681B69002B00F09180C8
:101970007B685B693B613B691B7BFB734FF000033A
:10198000FB6118E03A69FB69D3181B78FB75FB7D96
:10199000202B14D0FB7D052B02D14FF0E503FB7506
:1019A000BB69FA7D1A70BB6903F10103BB61FB6976
:1019B00003F10103FB61FB69072BE3D900E000BFE2
:1019C0003B6903F108031B78202B23D0BB694FF040
:1019D0002E021A70BB6903F10103BB614FF00803CB
:1019E000FB6112E03A69FB69D3181B78FB75FB7D3C
:1019F000202B0ED0BB69FA7D1A70BB6903F101037D
:101A0000BB61FB6903F10103FB61FB690A2BE9D9A7
:101A100000E000BF3B69DA7A3B681A723B6903F168
:101A20001F031B784FEA03623B6903F11E031B7817
:101A30004FEA03431A433B6903F11D031B784FEA46
:101A400003231A433B6903F11C031B781A433B68C9
:101A50001A603B6903F119031B784FEA03239AB21A
:101A60003B6903F118031B7813439BB29AB23B689E
:101A70009A803B6903F117031B784FEA03239AB25C
:101A80003B6903F116031B7813439BB29AB23B6880
:101A9000DA80BB694FF000021A7007F12407BD46D7
:101AA00080BC704780B584B000AF786039603B6817
:101AB0001B782F2B03D03B681B785C2B08D13B682D
:101AC00003F101033B607B684FF000029A6004E081
:101AD0007B681B689A697B689A603B681B781F2B40
:101AE0000BD878684FF00001FFF7E0FA0346FB736C
:101AF0007B684FF000025A615DE03B46786819460A
:101B0000FFF706FE0346FB73FB7B002B4CD1786886
:101B1000FFF7EAFC0346FB737B689B69DB7ABB73C8
:101B2000FB7B002B21D0FB7B042B3FD1BB7B03F045
:101B30002003002B10D07B684FF000029A607B6876
:101B40004FF000025A614FF00003FB73BB7B03F0C0
:101B50000403002B2CD126E0BB7B03F00403002BF5
:101B600026D14FF00503FB7322E0BB7B03F0040397
:101B7000002B1FD17B685B69BB60BB6803F10B0363
:101B80001B7803F01003002B03D14FF00503FB7308
:101B900011E07B681B681846B968FFF745FC0246F0
:101BA0007B689A60A9E7A8E700BF04E000BF02E0F5
:101BB00000BF00E000BFFB7B184607F11007BD46E1
:101BC00080BD00BF80B582B000AF786039607B68AF
:101BD0005A787B6803F13803104619463A684FF08B
:101BE0000103FEF7DDFC0346002B02D04FF0030398
:101BF00056E07B6893F837324FEA03239AB27B684A
:101C000093F8363213439BB21AB24AF65523CFF6F5
:101C1000FF739A4202D04FF0020341E07B6893F8D1
:101C200071304FEA03627B6893F870304FEA0343E8
:101C30001A437B6893F86F304FEA03231A437B689B
:101C400093F86E30134323F07F4244F24613C0F200
:101C500054039A4202D14FF0000321E07B6893F8CD
:101C60008D304FEA03627B6893F88C304FEA034370
:101C70001A437B6893F88B304FEA03231A437B683F
:101C800093F88A30134323F07F4244F24613C0F2A4
:101C900054039A4202D14FF0000301E04FF00103D8
:101CA000184607F10807BD4680BD00BF80B592B059
:101CB00000AFF860B9601346FB71FB681B68FB62FC
:101CC000FB6A1B78A3F130033B643B6C092B0DD8F6
:101CD000FB6A03F101031B783A2B07D1FB6A03F17E
:101CE0000203FB62FB68FA6A1A6005E040F69E1385
:101CF000C2F200031B783B64BB684FF000021A601D
:101D00003B6C002B02D04FF00B03D4E240F698134B
:101D1000C2F200033A6C53F82230BB62BB6A002B5C
:101D200002D14FF00C03C6E2BB68BA6A1A60BB6A04
:101D30001B78002B1CD0BB6A5B781846FEF704FCAE
:101D4000034687F8273097F8273003F00103002B6C
:101D50000ED1FB79002B08D097F8273003F004034D
:101D6000002B02D04FF00A03A5E24FF00003A2E2DD
:101D7000BB6A4FF000021A703B6CDAB2BB6A5A7051
:101D8000BB6A5B781846FEF7B5FB034687F8273039
:101D900097F8273003F00103002B02D04FF0030324
:101DA00089E2FB79002B08D097F8273003F0040371
:101DB000002B02D04FF00A037DE24FF00003FB63DB
:101DC000B86AF96BFFF7FEFE034687F8473097F8CD
:101DD0004730012B3FD14FF0000387F8463097F88A
:101DE0004630002B05D097F8463003F1FF3387F8D3
:101DF000463097F846304FEA031303F5DF7303F1DB
:101E00003803BA6AD3183B623B6A03F104031B78B8
:101E1000002B20D03B6A03F10B031B784FEA0362CF
:101E20003B6A03F10A031B784FEA03431A433B6AF8
:101E300003F109031B784FEA03231A433B6A03F1BA
:101E400008031B781343FB63B86AF96BFFF7BAFE0C
:101E5000034687F8473097F84730032B02D14FF0FD
:101E6000010328E297F84730002B02D04FF00D0312
:101E700021E2BB6A93F844304FEA03239AB2BB6A6B
:101E800093F8433013439BB21BB2B3F5007F02D0EB
:101E90004FF00D030FE2BB6A93F84F304FEA032374
:101EA0009AB2BB6A93F84E3013439BB29BB2BB63AA
:101EB000BB6B002B15D1BB6A93F85F304FEA03620E
:101EC000BB6A93F85E304FEA03431A43BB6A93F848
:101ED0005D304FEA03231A43BB6A93F85C30134327
:101EE000BB63BB6ABA6B1A62BB6A93F84830FB7774
:101EF000BB6AFA7FDA70FB7F012B05D0FB7F022BD8
:101F000002D04FF00D03D6E1FA7FBB6B02FB03F367
:101F1000BB63BB6A93F84530FB77BB6AFA7F9A7064
:101F2000FB7F002B06D0FA7FFB7F03F1FF331340CA
:101F3000002B02D04FF00D03BDE1BB6A93F84A308D
:101F40004FEA03239AB2BB6A93F8493013439BB21A
:101F50009AB2BB6A1A81BB6A1B8903F00F039BB25A
:101F6000002B02D04FF00D03A5E1BB6A93F84C3073
:101F70004FEA03239AB2BB6A93F84B3013439BB2E8
:101F80009BB27B637B6B002B15D1BB6A93F85B30F4
:101F90004FEA0362BB6A93F85A304FEA03431A438D
:101FA000BB6A93F859304FEA03231A43BB6A93F88C
:101FB000583013437B63BB6A93F847304FEA0323DF
:101FC0009AB2BB6A93F8463013439BB2BB83BB8B78
:101FD000002B02D14FF00D036DE1BA8BBB6BD21811
:101FE000BB6A1B894FEA13139BB2D318BB617A6B90
:101FF000BB699A4202D24FF00D035CE17A6BBB6978
:10200000D21ABB6A9B78B2FBF3F37B617B69002B2E
:1020100002D14FF00D034EE14FF0010387F8473036
:102020007A6940F6F5739A4203D94FF0020387F8B4
:1020300047307A694FF6F5739A4203D94FF003039C
:1020400087F847307B6903F10202BB6ADA61BB6A39
:10205000FA6B5A62BA8BFB6BD218BB6A9A62FA6B44
:10206000BB69D218BB6A1A6397F84730032B23D198
:10207000BB6A1B89002B02D04FF00D031BE1BB6A2A
:1020800093F867304FEA0362BB6A93F866304FEA11
:1020900003431A43BB6A93F865304FEA03231A439C
:1020A000BB6A93F864301A43BB6ADA62BB6ADB69C5
:1020B0004FEA83033B6323E0BB6A1B89002B02D1F9
:1020C0004FF00D03F7E0BB6A9A6ABB6BD218BB6A8C
:1020D000DA6297F84730022B04D1BB6ADB694FEA1A
:1020E00043030CE0BB6ADA6913464FEA43039B18CB
:1020F0004FEA5302BB6ADB6903F00103D3183B6369
:10210000BB6A1A6A3B6B03F2FF134FEA53239A42EE
:1021100002D24FF00D03CEE0BB6A4FF0FF321A61DE
:10212000BB6A4FF00002DA6097F84730032B40F0AB
:102130009C80BB6A4FF000025A71BB6A93F8693009
:102140004FEA03239AB2BB6A93F8683013439BB2F9
:102150009BB21A46FB6BD218BB6A5A61BB6A5978AC
:10216000BB6A03F13802BB6A5B69084611461A462E
:102170004FF00103FEF714FA0346002B75D1BB6A3A
:1021800093F837324FEA03239AB2BB6A93F8363298
:1021900013439BB21AB24AF65523CFF6FF739A4205
:1021A00063D1BB6A93F83B304FEA0362BB6A93F892
:1021B0003A304FEA03431A43BB6A93F839304FEA87
:1021C00003231A43BB6A93F838301A4345F252236B
:1021D000C4F261139A4248D1BB6A93F81F324FEAA6
:1021E0000362BB6A93F81E324FEA03431A43BB6A89
:1021F00093F81D324FEA03231A43BB6A93F81C324B
:102200001A4347F27223C6F241139A422DD1BB6A98
:1022100093F827324FEA0362BB6A93F826324FEAFB
:1022200003431A43BB6A93F825324FEA03231A4348
:10223000BB6A93F824321A43BB6ADA60BB6A93F82C
:1022400023324FEA0362BB6A93F822324FEA034318
:102250001A43BB6A93F821324FEA03231A43BB6A3D
:1022600093F820321A43BB6A1A61BB6A97F8472079
:102270001A7040F69C13C2F200031B8803F101039D
:102280009AB240F69C13C2F200031A8040F69C13E7
:10229000C2F200031A88BB6ADA80BB6A4FF0000200
:1022A0005A63BB6A4FF000021A71BB6A4FF000021A
:1022B0009A614FF00003184607F14807BD4680BDFC
:1022C00080B584B000AF78607B68FB60FB68002B52
:1022D0000FD0FB681B68002B0BD0FB681B681B78BA
:1022E000002B06D0FB681B68DA88FB689B889A4243
:1022F00002D04FF009030FE0FB681B685B781846BB
:10230000FEF722F9034603F00103002B02D04FF041
:10231000030301E04FF00003184607F11007BD4624
:1023200080BD00BF80B485B000AF03463960FB714B
:10233000FB79002B02D04FF00B031FE0FA7940F637
:102340009813C2F2000353F82230FB60FB68002BA5
:1023500003D0FB684FF000021A703B68002B03D0DB
:102360003B684FF000021A70FA7940F69813C2F2F7
:102370000003396843F822104FF00003184607F1B4
:102380001407BD4680BC704780B592B000AFF860BE
:10239000B9601346FB71FB68002B02D14FF00903B3
:1023A00055E1FB684FF000021A60FB7903F01F0350
:1023B000FB71FB7923F00103DBB207F1080107F1A0
:1023C0001C02084611461A46FFF770FC034687F8C0
:1023D000473097F84730002B40F0378107F1100362
:1023E0007B63BB6807F11C0210461946FFF75AFBD6
:1023F000034687F847303B6B3B6497F84730002B28
:1024000006D13B6C002B03D14FF0060387F8473011
:10241000FB7903F01C03002B00F0A88097F84730ED
:10242000002B12D097F84730042B07D107F11C037B
:102430001846FFF707F9034687F84730FB7943F062
:102440000803FB713B6B3B6415E03B6C03F10B0332
:102450001B7803F01103002B04D04FF0070387F81B
:10246000473008E0FB7903F00403002B03D04FF062
:10247000080387F8473097F84730002B40F09880E2
:10248000FB7903F00803002B00F09280FFF75AFA63
:10249000F8633B6C03F10E03FA6BD2B21A703B6C1B
:1024A00003F10F03FA6B92B24FEA122292B2D2B248
:1024B0001A703B6C03F11003FA6B4FEA1242D2B26E
:1024C0001A703B6C03F11103FA6B4FEA1262D2B23D
:1024D0001A703B6C03F10B034FF000021A703B6C57
:1024E00003F11C034FF000021A703B6C03F11D0353
:1024F0004FF000021A703B6C03F11E034FF0000214
:102500001A703B6C03F11F034FF000021A70FB6955
:102510001846396CFEF788FFB863386C4FF000013D
:10252000FEF7B4FFFB694FF001021A71BB6B002B81
:102530003ED0FB695B6BFB63FB691846B96BFEF72A
:10254000C7FC034687F8473097F84730002B2FD158
:10255000FB69BA6B02F1FF32DA60FB691846F96B6E
:10256000FEF7AEF9034687F8473021E097F8473089
:10257000002B1DD13B6C03F10B031B7803F0100300
:10258000002B04D04FF0040387F8473010E0FB79AC
:1025900003F00203002B0BD03B6C03F10B031B7801
:1025A00003F00103002B03D04FF0070387F84730F7
:1025B00097F84730002B0FD1FB7903F00803002B6D
:1025C00003D0FB7943F02003FB71FB695A6BFB6876
:1025D000DA61FB683A6C1A6297F84730002B34D105
:1025E000FB68FA799A71FB691846396CFEF71CFF93
:1025F0000246FB681A613B6C03F11F031B784FEA2C
:1026000003623B6C03F11E031B784FEA03431A433A
:102610003B6C03F11D031B784FEA03231A433B6C09
:1026200003F11C031B781A43FB68DA60FB684FF068
:1026300000029A60FB684FF000029A61FA69FB6839
:102640001A60FB69DA88FB689A8097F84730184669
:1026500007F14807BD4680BD80B58CB000AFF8607B
:10266000B9607A603B60BB683B623B684FF0000238
:102670001A60F868FFF724FE0346FB77FB7F002B08
:1026800001D0FB7F56E1FB689B79DBB25BB2002B8C
:1026900002DA4FF002034DE1FB689B7903F001037E
:1026A000002B02D14FF0070344E1FB68DA68FB68B6
:1026B0009B68D31ABB617A68BB699A4240F2348145
:1026C000BB697B6030E1FB689B684FEAC3534FEA0C
:1026D000D353002B40F0F480FB689B684FEA5323F0
:1026E000DAB2FB681B689B7803F1FF33DBB213405F
:1026F000FB75FB7D002B2ED1FB689B68002B03D163
:10270000FB681B69FB6208E0FB681A68FB685B6991
:1027100010461946FEF7E4F9F862FB6A012B09D866
:10272000FB689B7963F07F03DAB2FB689A714FF024
:102730000203FFE0FB6AB3F1FF3F09D1FB689B791D
:1027400063F07F03DAB2FB689A714FF00103F1E0A6
:10275000FB68FA6A5A61FB681A68FB685B69104695
:102760001946FEF79BF938613B69002B09D1FB68DC
:102770009B7963F07F03DAB2FB689A714FF0020332
:10278000D8E0FB7D3A69D3183B617B684FEA53235D
:102790007B627B6A002B48D0FA7D7B6AD218FB688B
:1027A0001B689B789A4206D9FB681B689B781A467F
:1027B000FB7DD31A7B62FB681B685A787B6ADBB2AD
:1027C0001046396A3A69FDF7EBFE0346002B09D043
:1027D000FB689B7963F07F03DAB2FB689A714FF074
:1027E0000103A7E0FB689B7903F04003002B17D09F
:1027F000FB689A693B69D21A7B6A9A4210D2FB68DD
:102800009A693B69D31A4FEA43233A6AD218FB68A4
:1028100003F12403104619464FF40072FDF760FFE0
:102820007B6A4FEA4323BB626AE0FB689A693B69B3
:102830009A4242D0FB689B7903F04003002B22D0E0
:10284000FB681B685978FB6803F12402FB689B69ED
:10285000084611461A464FF00103FDF7D7FE03461E
:10286000002B09D0FB689B7963F07F03DAB2FB6829
:102870009A714FF001035DE0FB689B7923F0400300
:10288000DAB2FB689A71FB681B685A78FB6803F13F
:102890002403104619463A694FF00103FDF780FE04
:1028A0000346002B09D0FB689B7963F07F03DAB203
:1028B000FB689A714FF001033CE0FB683A699A614A
:1028C000FB689B684FEAC3534FEAD353C3F50073C9
:1028D000BB62BA6A7B689A4201D97B68BB62FB68BB
:1028E0009B684FEAC3534FEAD35303F12003FA68BE
:1028F000D31803F10403386A1946BA6AFDF7F0FEEB
:102900003A6ABB6AD3183B62FB689A68BB6AD21802
:10291000FB689A603B681A68BB6AD2183B681A6009
:102920007A68BB6AD31A7B607B68002B7FF4CBAEDE
:102930004FF00003184607F13007BD4680BD00BFC9
:1029400080B58AB000AFF860B9607A603B60BB6860
:10295000BB613B684FF000021A60F868FFF7B0FCFB
:102960000346FB75FB7D002B01D0FB7D88E1FB68F6
:102970009B79DBB25BB2002B02DA4FF002037FE1FE
:10298000FB689B7903F00203002B02D14FF0070391
:1029900076E1FB68DA687B68D218FB68DB689A42EC
:1029A00080F055814FF000037B6050E1FB689B682D
:1029B0004FEAC3534FEAD353002B40F00D81FB681D
:1029C0009B684FEA5323DAB2FB681B689B7803F1DC
:1029D000FF33DBB21340BB75BB7D002B40D1FB68DE
:1029E0009B68002B11D1FB681B697B627B6A002B03
:1029F00014D1FB681B6818464FF00001FEF7C0FABF
:102A00007862FB687A6A1A6108E0FB681A68FB68FA
:102A10005B6910461946FEF7B3FA78627B6A002BB1
:102A200000F01A817B6A012B09D1FB689B7963F066
:102A30007F03DAB2FB689A714FF0020320E17B6AF0
:102A4000B3F1FF3F09D1FB689B7963F07F03DAB2F2
:102A5000FB689A714FF0010312E1FB687A6A5A61D0
:102A6000FB689B7903F04003002B22D0FB681B68B6
:102A70005978FB6803F12402FB689B6908461146FC
:102A80001A464FF00103FDF7C1FD0346002B09D0A4
:102A9000FB689B7963F07F03DAB2FB689A714FF0B1
:102AA0000103EDE0FB689B7923F04003DAB2FB6899
:102AB0009A71FB681A68FB685B6910461946FDF756
:102AC000EDFF38613B69002B09D1FB689B7963F00E
:102AD0007F03DAB2FB689A714FF00203D0E0BB7D4E
:102AE0003A69D3183B617B684FEA5323FB61FB696A
:102AF000002B49D0BA7DFB69D218FB681B689B7814
:102B00009A4206D9FB681B689B781A46BB7DD31A8C
:102B1000FB61FB681B685A78FB69DBB21046B96938
:102B20003A69FDF773FD0346002B09D0FB689B79DA
:102B300063F07F03DAB2FB689A714FF001039FE004
:102B4000FB689A693B69D21AFB699A4217D2FB6803
:102B500003F12402FB6899693B69CB1A4FEA4323CE
:102B6000B969CB18104619464FF40072FDF7B8FD4D
:102B7000FB689B7923F04003DAB2FB689A71FB692A
:102B80004FEA43233B624EE0FB689A693B699A42F5
:102B90001FD0FB689A68FB68DB689A4219D2FB6811
:102BA0001B685A78FB6803F12403104619463A69FA
:102BB0004FF00103FDF7F4FC0346002B09D0FB683E
:102BC0009B7963F07F03DAB2FB689A714FF00103DF
:102BD00056E0FB683A699A61FB689B684FEAC35309
:102BE0004FEAD353C3F500733B623A6A7B689A425B
:102BF00001D97B683B62FB689B684FEAC3534FEA8D
:102C0000D35303F12003FA68D31803F104031846E1
:102C1000B9693A6AFDF764FDFB689B7943F04003AC
:102C2000DAB2FB689A71BA693B6AD318BB61FB6878
:102C30009A683B6AD218FB689A603B681A683B6ADC
:102C4000D2183B681A607A683B6AD31A7B607B684B
:102C5000002B7FF4ABAE00E000BFFB689A68FB6816
:102C6000DB689A4203D9FB689A68FB68DA60FB6804
:102C70009B7943F02003DAB2FB689A714FF00003AE
:102C8000184607F12807BD4680BD00BF80B586B055
:102C900000AF78607868FFF713FB0346FB75FB7D98
:102CA000002B40F0B0807B689B7903F02003002B61
:102CB00000F0A9807B689B7903F04003002B1BD0B8
:102CC0007B681B6859787B6803F124027B689B69E9
:102CD000084611461A464FF00103FDF797FC0346DC
:102CE000002B02D04FF001038EE07B689B7923F02C
:102CF0004003DAB27B689A717B681A687B68DB698B
:102D000010461946FDF7DCFD0346FB75FB7D002BE5
:102D100079D17B681B6A3B613B6903F10B033A691C
:102D200002F10B02127842F02002D2B21A703B6913
:102D300003F11C037A68D268D2B21A703B6903F1BE
:102D40001D037A68D26892B24FEA122292B2D2B2CE
:102D50001A703B6903F11E037A68D2684FEA124287
:102D6000D2B21A703B6903F11F037A68D2684FEA46
:102D70001262D2B21A707B681B6938691946FEF775
:102D800085FBFEF7DFFDF8603B6903F11603FA6887
:102D9000D2B21A703B6903F11703FA6892B24FEA94
:102DA000122292B2D2B21A703B6903F11803FA6888
:102DB0004FEA1242D2B21A703B6903F11903FA6862
:102DC0004FEA1262D2B21A703B6903F112034FF05C
:102DD00000021A703B6903F113034FF000021A70EE
:102DE0007B689B7923F02003DAB27B689A717B6859
:102DF0001B684FF001021A717B681B681846FDF7CB
:102E00008FFD0346FB75FB7D184607F11807BD468D
:102E100080BD00BF80B584B000AF78607868FFF7F0
:102E200035FF0346FB73FB7B002B03D17B684FF020
:102E300000021A60FB7B184607F11007BD4680BDF3
:102E400080B483B000AF0346FB71FB79002B02D046
:102E50004FF00B0307E040F69E13C2F20003FA792D
:102E60001A704FF00003184607F10C07BD4680BCEE
:102E7000704700BF90B58FB000AF786007F10402D3
:102E800007F11803104619464FF00002FEF70EFF37
:102E9000034687F8373097F83730002B35D107F1E4
:102EA0000C033B637B6807F1180210461946FEF7D6
:102EB000F9FD034687F8373097F83730002B1CD1DF
:102EC000FB6A002B03D1BB693A6A9A6115E0FB6A81
:102ED00003F10B031B7803F01003002B09D0BC692E
:102EE000BA69FB6A10461946FEF79EFA0346A361CB
:102EF00003E04FF0050387F8373097F83730042B9D
:102F000003D14FF0050387F8373097F8373018466C
:102F100007F13C07BD4690BD80B588B000AF786032
:102F200039607868FFF7CCF90346FB75FB7D002B11
:102F300001D0FB7D57E17B689B79DBB25BB2002B54
:102F400002DA4FF002034EE17B68DA683B689A428E
:102F500008D27B689B7903F00203002B02D17B68C7
:102F6000DB683B607B689B683B614FF00003BB61A3
:102F70007B68BA699A603B68002B00F0CF807B6861
:102F80001B689B784FEA4323FB603B69002B1FD0F3
:102F90003B6803F1FF32FB68B2FBF3F23B6903F1DC
:102FA000FF31FB68B1FBF3F39A4211D33B6903F1A4
:102FB000FF32FB68C3F100031A407B689A607B68AC
:102FC0009B683A68D31A3B607B685B69FB612EE0C3
:102FD0007B681B69FB61FB69002B25D17B681B6843
:102FE00018464FF00001FDF7CBFFF861FB69012B9C
:102FF00009D17B689B7963F07F03DAB27B689A71B1
:103000004FF00203EFE0FB69B3F1FF3F09D17B68AA
:103010009B7963F07F03DAB27B689A714FF001030A
:10302000E1E07B68FA691A617B68FA695A61FB69B9
:10303000002B73D047E07B689B7903F00203002BE1
:103040000CD07B681B681846F969FDF799FFF86199
:10305000FB69002B09D1FB683B6038E07B681B688B
:103060001846F969FDF73CFDF861FB69B3F1FF3FD4
:1030700009D17B689B7963F07F03DAB27B689A7130
:103080004FF00103AFE0FB69012B05D97B681B689A
:10309000DA69FB699A4209D87B689B7963F07F0300
:1030A000DAB27B689A714FF002039CE07B68FA69A0
:1030B0005A617B689A68FB68D2187B689A603A68A4
:1030C000FB68D31A3B603A68FB689A42B3D87B68C6
:1030D0009A683B68D2187B689A603B684FEAC35392
:1030E0004FEAD353002B19D07B681B681846F96947
:1030F000FDF7D4FCB861BB69002B09D17B689B79D3
:1031000063F07F03DAB27B689A714FF002036AE0E2
:103110003B684FEA5323BA69D318BB617B689B684D
:103120004FEAC3534FEAD353002B4AD07B689A69C6
:10313000BB699A4245D07B689B7903F04003002B22
:1031400022D07B681B6859787B6803F124027B6876
:103150009B69084611461A464FF00103FDF756FADF
:103160000346002B09D07B689B7963F07F03DAB2BA
:103170007B689A714FF0010335E07B689B7923F0FF
:103180004003DAB27B689A717B681B685A787B6867
:1031900003F1240310461946BA694FF00103FDF705
:1031A000FFF90346002B09D07B689B7963F07F030E
:1031B000DAB27B689A714FF0010314E07B68BA6958
:1031C0009A617B689A687B68DB689A420AD97B6857
:1031D0009A687B68DA607B689B7943F02003DAB2F7
:1031E0007B689A71FB7D184607F12007BD4680BDBC
:1031F00080B588B000AF786039607B68002B02D161
:103200004FF0090358E07B683A46104619464FF0E4
:103210000002FEF74BFD0346FB777B681B68BB6132
:10322000FB7F002B43D17B6807F10C029A613B685E
:1032300078681946FEF736FC0346FB77FB7F002BC8
:1032400027D17B685B69002B15D07B685B6903F134
:103250000B031B7803F01003002B09D07B685B691C
:10326000B8691946FEF7E0F802467B689A6002E00A
:103270004FF00503FB77FB7F002B0AD1BB69DA888F
:103280007B689A8078684FF00001FDF70FFF0346D6
:10329000FB77FB7F042B02D14FF00503FB77FB7F0D
:1032A000002B08D07B684FF000021A6003E07B68B7
:1032B0004FF000021A60FB7F184607F12007BD4659
:1032C00080BD00BF80B586B000AF78603960786897
:1032D000FEF7F6FF0346FB75FB7D002B37D13B68FD
:1032E000002B07D178684FF00001FDF7DFFE0346A1
:1032F000FB752CE07B6807F108029A6178684FF053
:103300000001FEF743F90346FB75FB7D042B06D154
:103310007B684FF000021A614FF00003FB75FB7DE4
:10332000002B14D178683968FEF714FB78684FF0E9
:103330000001FDF747FF0346FB75FB7D042B06D11B
:103340007B684FF000021A614FF00003FB75FB7DB4
:10335000184607F11807BD4680BD00BF80B58EB086
:1033600000AF7860396007F1040207F118031046D6
:1033700019464FF00002FEF799FC034687F83730F4
:1033800097F83730002B1ED107F10C033B637B68A5
:1033900007F1180210461946FEF784FB034687F82A
:1033A000373097F83730002B0DD1FB6A002B06D051
:1033B00007F1180318463968FEF7CCFA03E04FF01E
:1033C000060387F8373097F83730184607F1380783
:1033D000BD4680BD80B58EB000AFF860B9607A6040
:1033E00007F10C03184679684FF00002FEF75EFC07
:1033F000034687F837307B681B68FB6197F83730E6
:10340000002B40F0C180FB691A69FB69DB69A3F1FD
:1034100002039A4204D8FB691A69BB681A60B3E0D8
:10342000FB691B78FB764FF000033B63FB7E012BAF
:103430002AD14FF00203FB62F869F96AFDF750FBED
:1034400078617B69B3F1FF3F04D14FF0010387F846
:1034500037308CE07B69012B05D14FF0020387F8F0
:10346000373000BF83E07B69002B03D13B6B03F156
:1034700001033B63FB6A03F10103FB62FB69DB6948
:10348000FA6A9A42D8D372E0FB69DB69FB62FB6996
:103490009B6ABB624FF000037B624FF000033B620C
:1034A0007B6A002B16D1BB6ABA6A02F10102BA62CA
:1034B000F8691946FDF704FA034687F8373097F89C
:1034C0003730002B52D1FB6903F138033B624FF4D4
:1034D00000737B62FB7E022B19D13B6A03F101036F
:1034E0001B784FEA03239AB23B6A1B7813439BB2C3
:1034F000002B03D13B6B03F101033B633B6A03F1F8
:1035000002033B627B6AA3F102037B6226E03B6A13
:1035100003F103031B784FEA03623B6A03F10203E2
:103520001B784FEA03431A433B6A03F101031B78FC
:103530004FEA03231A433B6A1B78134323F070437B
:10354000002B03D13B6B03F101033B633B6A03F1A7
:1035500004033B627B6AA3F104037B62FB6A03F111
:10356000FF33FB62FB6A002B9AD100E000BFFB69CE
:103570003A6B1A61FB7E032B03D1FB694FF001020A
:103580005A71BB683A6B1A6097F83730184607F1E2
:103590003807BD4680BD00BF80B584B000AF7860FD
:1035A0007868FEF78DFE0346FB73FB7B002B12D180
:1035B0007B689B79DBB25BB2002B03DA4FF002032E
:1035C000FB7308E07B689B7903F00203002B02D1B8
:1035D0004FF00703FB73FB7B002B66D17B68DA6837
:1035E0007B689B689A4256D97B689A687B68DA60E8
:1035F0007B689B7943F02003DAB27B689A717B6821
:103600009B68002B0ED17B681A687B681B6910468B
:103610001946FDF75DFC0346FB737B684FF0000223
:103620001A6138E07B681A687B685B691046194646
:10363000FDF756FAB8604FF00003FB73BB68B3F1B7
:10364000FF3F02D14FF00103FB73BB68012B02D196
:103650004FF00203FB73FB7B002B1CD17B681B68C4
:10366000DA69BB689A4216D97B681A687B685B691D
:10367000104619466FF07042FDF700FB0346FB73DE
:10368000FB7B002B07D17B681B681846B968FDF7E8
:103690001FFC0346FB73FB7B002B06D07B689B79EA
:1036A00063F07F03DAB27B689A71FB7B184607F1FF
:1036B0001007BD4680BD00BF80B596B000AF7860F2
:1036C00007F1040207F13003104619464FF00102DA
:1036D000FEF7ECFA034687F8573097F85730002B7F
:1036E00040F0B18007F10803BB647B6807F130024A
:1036F00010461946FEF7D6F9034687F8573097F873
:103700005730002B0BD1BB6C03F10B031B7803F07C
:103710002003002B03D04FF0060387F8573097F8AB
:103720005730002B40F08F807B6C3B653B6D002B4E
:1037300004D14FF0060387F857300BE03B6D03F1DF
:103740000B031B7803F00103002B03D04FF007039A
:1037500087F857303B6B1846396DFDF765FEF86406
:1037600097F85730002B48D13B6D03F10B031B78C2
:1037700003F01003002B40D0FB6C012B04D84FF05A
:10378000020387F8573038E007F1140207F13003DD
:10379000104619464FF01C02FCF7A2FFFB6CFB61C0
:1037A00007F1140318464FF00201FDF77FFC0346B2
:1037B00087F8573097F85730002B1ED107F11403C4
:1037C00018464FF00001FDF7E1FE034687F8573039
:1037D00097F85730002B04D03B6B9A69FB6C9A42E8
:1037E00003D14FF0070387F8573097F85730042B71
:1037F00003D14FF0000387F8573097F85730002B6C
:1038000021D107F130031846FDF756FF034687F82C
:10381000573097F85730002B15D1FB6C002B07D091
:103820003B6B1846F96CFDF753FB034687F857309E
:1038300097F85730002B06D13B6B1846FDF770F810
:10384000034687F8573097F85730184607F158075E
:10385000BD4680BD80B592B000AF7860FEF772F8CB
:10386000B86307F1040207F11403104619464FF03C
:103870000102FEF71BFA034687F8473097F84730F6
:10388000002B40F0408107F10803FB627B6807F1E1
:10389000140210461946FEF705F9034687F847302B
:1038A00097F84730002B03D14FF0080387F84730D3
:1038B00097F84730042B0BD1FB6A03F10B031B78FD
:1038C00003F02003002B03D04FF0060387F84730A6
:1038D00097F84730042B40F016817B6918464FF06B
:1038E0000001FDF74DFB78634FF0000387F8473088
:1038F0007B6B002B03D14FF0070387F847307B6BBE
:10390000012B03D14FF0020387F847307B6BB3F1F3
:10391000FF3F03D14FF0010387F8473097F8473056
:10392000002B06D17B691846FCF778FF034687F821
:10393000473097F84730002B40F098807B69184655
:10394000796BFDF7ABF838647B6903F138033B63AF
:10395000386B4FF000014FF40072FCF7E9FE386B52
:103960004FF020014FF00B02FCF7E2FE3B6B4FF0F3
:103970002E021A703B6B03F10B034FF010021A700A
:103980003B6B03F11603BA6BD2B21A703B6B03F1B7
:103990001703BA6B92B24FEA122292B2D2B21A70E5
:1039A0003B6B03F11803BA6B4FEA1242D2B21A70A2
:1039B0003B6B03F11903BA6B4FEA1262D2B21A7071
:1039C000386B796BFDF762FD3B6B03F12003184602
:1039D000396B4FF02002FCF783FE3B6B03F12103B0
:1039E0004FF02E021A70FB69FB637B691B78032B77
:1039F00007D17B69DA6AFB6B9A4202D14FF0000370
:103A0000FB633B6B03F120031846F96BFDF73EFDAA
:103A10007B699B7887F8463022E07B693A6C5A6371
:103A20003B6C03F101033B647B694FF001021A71A7
:103A30007B691846FCF7F2FE034687F8473097F893
:103A40004730002B11D1386B4FF000014FF400725A
:103A5000FCF76EFE97F8463003F1FF3387F84630E7
:103A600097F84630002BD8D100E000BF97F84730D8
:103A7000002B07D107F114031846FDF7E3FD0346B9
:103A800087F8473097F84730002B05D07B691846F8
:103A9000796BFDF71DFA36E0BB6A3B633B6B03F1C4
:103AA0000B034FF010021A703B6B03F11603BA6B55
:103AB000D2B21A703B6B03F11703BA6B92B24FEAA2
:103AC000122292B2D2B21A703B6B03F11803BA6B96
:103AD0004FEA1242D2B21A703B6B03F11903BA6B70
:103AE0004FEA1262D2B21A70386B796BFDF7CEFCD6
:103AF0007B694FF001021A717B691846FCF710FFD1
:103B0000034687F8473097F84730184607F14807CB
:103B1000BD4680BD80B58EB000AF786013460A46C2
:103B2000FA70BB7007F1040207F11403104619463E
:103B30004FF00102FEF7BAF8034687F8373097F8DE
:103B40003730002B4DD107F10803FB627B6807F18A
:103B5000140210461946FDF7A5FF034687F83730D3
:103B600097F83730002B0BD1FB6A03F10B031B785E
:103B700003F02003002B03D04FF0060387F8373003
:103B800097F83730002B2CD1BB6A3B633B6B002B83
:103B900004D14FF0060387F8373022E0BB7803F0FA
:103BA0002703BB703B6B03F10B03F978BA780A402B
:103BB000D1B23A6B02F10B021078BA786FEA0202C6
:103BC000D2B20240D2B20A43D2B21A707B694FF02D
:103BD00001021A717B691846FCF7A2FE034687F8BA
:103BE000373097F83730184607F13807BD4680BDA3
:103BF00080B58EB000AF7860396007F1040207F13C
:103C00001403104619464FF00102FEF74FF8034621
:103C100087F8373097F83730002B57D107F1080372
:103C2000FB627B6807F1140210461946FDF73AFF64
:103C3000034687F8373097F83730002B0BD1FB6AF3
:103C400003F10B031B7803F02003002B03D04FF08C
:103C5000060387F8373097F83730002B36D1BB6A28
:103C60003B633B6B002B04D14FF0060387F83730E2
:103C70002CE03B6B03F116033A68D288D2B21A707B
:103C80003B6B03F117033A68D2884FEA122292B2D3
:103C9000D2B21A703B6B03F118033A689288D2B221
:103CA0001A703B6B03F119033A6892884FEA1222AB
:103CB00092B2D2B21A707B694FF001021A717B691D
:103CC0001846FCF72DFE034687F8373097F8373053
:103CD000184607F13807BD4680BD00BF90B59DB0BE
:103CE00000AF7860396007F1040207F1480310461D
:103CF00019464FF00102FDF7D9FF034687F86F30F0
:103D000097F86F30002B40F0E180BB6CFB6207F14D
:103D100008033B667B6807F1480210461946FDF729
:103D2000C1FE034687F86F3097F86F30002B0BD138
:103D30003B6E03F10B031B7803F02003002B03D031
:103D40004FF0060387F86F3097F86F30002B40F084
:103D5000BD80FB6D002B04D14FF0040387F86F305A
:103D6000B4E0FB6D03F10B0307F114021046194692
:103D70004FF01502FCF7B4FC07F12C0207F14803E1
:103D8000104619464FF01C02FCF7AAFC07F12C0361
:103D900018463968FDF786FE034687F86F3097F8B6
:103DA0006F30002B03D14FF0080387F86F3097F87E
:103DB0006F30042B40F08A8007F12C031846FDF782
:103DC00041FC034687F86F3097F86F30002B7DD1A8
:103DD0003B6CBB66BB6E03F10D0207F1140303F1EC
:103DE0000203104619464FF01302FCF779FCBB6E34
:103DF00003F10B033A7D42F02002D2B21A70BB6C81
:103E00004FF001021A713A6D7B6B9A4247D0BB6E3C
:103E100003F10B031B7803F01003002B3FD0BC6CA5
:103E2000BB6C1846B96EFDF7FFFA034620461946EB
:103E3000FCF734FE78667B6E002B04D14FF0020352
:103E400087F86F302BE0BB6C1846796EFCF738FDB5
:103E5000034687F86F30BB6C03F15803BB6697F8D5
:103E60006F30002B1BD1BB6E03F101031B782E2B8F
:103E700015D1BB6C1B78032B04D17A6BBB6CDB6A4E
:103E80009A4201D07B6B01E04FF000037B66B86E75
:103E9000796EFDF7FBFABB6C4FF001021A7197F8CF
:103EA0006F30002B12D107F148031846FDF704FCD0
:103EB000034687F86F3097F86F30002B06D1BB6C44
:103EC0001846FCF72DFD034687F86F3097F86F30E2
:103ED000184607F17407BD4690BD00BF80B483B09B
:103EE00000AF0346FB714FF46143CEF2000397F934
:103EF00007204FEA5212F97901F01F014FF001003B
:103F000000FA01F143F8221007F10C07BD4680BC0E
:103F1000704700BF80B500AF4FF46053C4F2020396
:103F20004FF46052C4F20202126B42F4001242F0EB
:103F30000F021A634FF46053C4F202034FF460524D
:103F4000C4F20202126C42F40A1242F020021A6415
:103F50004FF46053C4F202034FF46052C4F2020201
:103F6000526C42F4A0425A644FF00003C4F20203C0
:103F70004FF00002C4F20202126822F47C4222F0E6
:103F800030021A604FF00003C4F202034FF0000247
:103F9000C4F20202126842F4284242F010021A608F
:103FA0004FF00003C4F202034FF00002C4F2020219
:103FB000926842F4284242F020029A604FF00003D7
:103FC000C4F202034FF00002C4F20202126A42F08D
:103FD000AA4242F4A0021A624FF44053C4F2010311
:103FE0004FF44052C4F20102128892B242F45D7260
:103FF00092B21A804FF00003C4F202034FF00402A1
:104000001A834FF00003C4F202034FF00002C4F21F
:104010000202126822F003021A604FF00003C4F299
:1040200002034FF00002C4F20202126A22F00F02F1
:104030001A624FF00003C4F202034FF00002C4F210
:104040000202126842F400721A604FF00003C4F2D8
:1040500002034FF00002C4F20202126A42F4C022CC
:104060001A624FF48063C4F202034FF48062C4F218
:104070000202126822F443221A604FF48063C4F2F1
:1040800002034FF48062C4F20202126842F4022278
:104090001A604FF48063C4F202034FF48062C4F2EA
:1040A0000202926842F402229A604FF48063C4F2E2
:1040B00002034FF48062C4F20202526842F41072AA
:1040C0005A604FF48063C4F202034FF48062C4F27A
:1040D0000202D26842F48222DA604FF48063C4F2B2
:1040E00002034FF48062C4F20202126A42F080625C
:1040F0001A624FF48063C4F202034FF48062C4F288
:104100000202526A42F040025A624FF40063C4F263
:1041100002034FF40062C4F20202126822F07C72C1
:1041200022F440421A604FF40063C4F202034FF4D9
:104130000062C4F20202126842F0287242F40042A5
:104140001A604FF40063C4F202034FF40062C4F239
:104150000202926842F0287242F400429A604FF4E0
:104160000063C4F202034FF40062C4F20202126A56
:1041700042F0C0421A624FF40063C4F202034FF4EB
:104180000062C4F20202526A42F4CC2242F4C062DB
:104190005A624FF44063C4F202034FF44062C4F227
:1041A0000202126842F0AA4242F490721A604FF47E
:1041B0004063C4F202034FF44062C4F20202926808
:1041C00042F02A4242F408729A604FF4A053C4F2BB
:1041D00000034FF001029A814FF4A053C4F2000390
:1041E0004FF001021A854FF4A053C4F2000345F2C8
:1041F0000822DA624FF4A053C4F200034FF0050224
:104200001A804FF44063C4F202034FF44062C4F2D8
:104210000202126842F420521A604FF44063C4F262
:1042200002034FF44062C4F20202926842F4205248
:104230009A604FF44063C4F202034FF44062C4F248
:104240000202126A42F0EE621A624FF46053C4F244
:1042500001039B684FF46053C4F201034FF0000266
:104260009A604FF47053C4F201034FF47052C4F2D9
:104270000102126842F001021A604FF47053C4F256
:1042800001034FF47052C4F20102D26842F00102FD
:10429000DA604FF4A843C4F2000348F208421A80DF
:1042A0004FF4A843C4F200034FF02A029A804FF45F
:1042B000A843C4F2000348F2D2029A834FF4A84301
:1042C000C4F200034FF029021A844FF4A843C4F249
:1042D00000034FF4A842C4F20002128892B242F0E6
:1042E000010292B21A804FF48843C4F2000340F2F4
:1042F000D9221A814FF48843C4F200034FF02C02F4
:104300009A814FF48843C4F200034FF000021A82EE
:104310004FF48843C4F200034FF080029A824FF4B6
:104320008843C4F2000340F201121A834FF4884319
:10433000C4F200034FF48842C4F20002928992B2A0
:1043400042F4005292B29A814FF02600FFF7C6FD68
:104350004FF00600FFF7C2FD4FF03700FFF7BEFD3C
:104360004FF02F00FFF7BAFD80BD00BF80B483B0CF
:1043700000AF78607B681B889BB24FEA43434FEAEB
:1043800053439AB27B681A807B684FF008021A8008
:104390007B684FF02A029A807B6848F2D2029A83A7
:1043A0007B684FF029021A847B681B889BB243F01C
:1043B00001039AB27B681A8007F10C07BD4680BCE6
:1043C000704700BF80B483B000AF78600B46FB70CD
:1043D0007B681B889BB243F480739AB27B681A8017
:1043E00000BF7B681B8B9BB203F00103002BF8D04E
:1043F00000BF7B684FF094021A8200BF7B689B8AE3
:104400009BB203F08203002BF8D000BF7B681B8BAC
:104410009BB203F00703002BF8D000BFFB789AB2E1
:104420007B681A8200BF7B689B8A9BB203F0820381
:10443000002BF8D000BF7B681B8B9BB203F00703F7
:10444000002BF8D000BF7B681B889BB243F400733D
:104450009AB27B681A8000BF7B681B8B9BB203F00B
:104460000103002BF8D17B681B889BB243F4807357
:104470009AB27B681A8000BF7B681B8B9BB203F0EB
:104480000103002BF8D07B684FF095021A8200BF21
:104490007B689B8A9BB203F08203002BF8D000BF9D
:1044A0007B681B8B9BB203F00703002BF8D000BF87
:1044B0007B681B889BB223F480639AB27B681A8066
:1044C00000BF7B689B8A9BB203F04003002BF8D0AF
:1044D00000BF7B681B889BB243F400739AB27B6871
:1044E0001A8000BF7B681B8B9BB203F00103002B7B
:1044F000F8D17B681B8A9BB2DBB2184607F10C0728
:10450000BD4680BC704700BF80B483B000AF786008
:1045100013460A46FA70BB707B681B889BB243F453
:1045200080739AB27B681A8000BF7B681B8B9BB23A
:1045300003F00103002BF8D000BF7B684FF094021A
:104540001A8200BF7B689B8A9BB203F08203002B18
:10455000F8D000BF7B681B8B9BB203F00703002BD6
:10456000F8D000BFFB789AB27B681A8200BF7B68E4
:104570009B8A9BB203F08203002BF8D000BF7B68BC
:104580001B8B9BB203F00703002BF8D000BFBB7856
:104590009AB27B681A8200BF7B689B8A9BB203F049
:1045A0008203002BF8D000BF7B681B8B9BB203F00B
:1045B0000703002BF8D000BF7B681B889BB243F435
:1045C00000739AB27B681A8000BF7B681B8B9BB21A
:1045D00003F00103002BF8D107F10C07BD4680BCA6
:1045E000704700BF80B400AF4FF47053C4F20003B3
:1045F0004FF000021A804FF47053C4F2000340F2EF
:1046000006221A844FF47053C4F200034FF00202E2
:104610009A804FF47053C4F200034FF460629A839F
:10462000BD4680BC704700BF80B400AF00BF0BE048
:104630004FF48843C4F200039B889BB2DAB240F681
:104640000C63C2F200031A704FF48843C4F20003F3
:104650001B889BB203F02003002BE9D14FF4884361
:10466000C4F2000340F60C62C2F2000212789A8093
:10467000BD4680BC704700BF80B400AF4FF470539C
:10468000C4F201034FF001025A6140F6A313C2F2D3
:1046900000034FF001021A7040F6A413C2F20003A7
:1046A0004FF000021A60BD4680BC704780B400AF76
:1046B0004FF080434FF6FE721A82BD4680BC7047B1
:1046C00080B400AF4FF44063C4F202034FF4406281
:1046D000C4F20202526982F400425A614FF4A053BC
:1046E000C4F200034FF000021A8240F6A313C2F294
:1046F00000031B78002B0BD040F6A413C2F200037A
:104700001B6803F1010240F6A413C2F200031A6011
:1047100040F6A413C2F200031B68322B14D940F6F2
:10472000A313C2F200034FF000021A7040F6A41364
:10473000C2F200034FF000021A6040F6A813C2F262
:1047400000034FF001021A70BD4680BC704700BFE5
:1047500080B400AF00BFBD4680BC704780B400AFDE
:1047600000BF4FF4C043C4F202035B6803F0006370
:10477000002B0CD000BF4FF44063C4F202034FF48F
:104780004062C4F20202526982F480525A614FF4CC
:10479000C043C4F202035B6803F08063002B18D0AF
:1047A00000BF46F2B803C4F202031B6803F40023FF
:1047B000002B07D040F6A013C2F200034FF0010215
:1047C0001A7006E040F6A113C2F200034FF0010296
:1047D0001A704FF4C043C4F202034FF07462DA60FF
:1047E000BD4680BC704700BF80B483B000AF786026
:1047F00000BF7B68002B0CBF00220122D2B203F164
:10480000FF337B60002AF4D107F10C07BD4680BC62
:10481000704700BF80B483B000AF7860396015E0A6
:104820004FF48843C4F200037A6812789A807B6858
:1048300003F101037B6000BF4FF48843C4F200031F
:104840001B889BB203F04003002BF5D03B68002B84
:104850000CBF00230123DBB23A6802F1FF323A6059
:10486000002BDDD107F10C07BD4680BC704700BFAF
:1048700080B582B000AF4FF06103FB714FF00003D1
:10488000BB714FF000033B60FFF744FB4FF4406304
:10489000C4F202034FF44062C4F20202526942F4CD
:1048A00080525A61FBF700FD4FF44063C4F20203EB
:1048B0004FF44062C4F20202526942F400525A615B
:1048C000FBF70EFE4FF44063C4F202034FF4406264
:1048D000C4F20202526942F480425A61FBF7FAFDC7
:1048E0004FF44063C4F202034FF44062C4F2020288
:1048F000526942F400425A61FBF7F4FC4FF4406302
:10490000C4F202034FF44062C4F2020252694FEA59
:1049100002524FEA12525A614FF000033B6014E01A
:104920003A6841F21C13C2F20003F9799954FB79F9
:1049300003F10103FB71FB797A2B02D94FF061037C
:10494000FB713B6803F101033B603A6843F6FF7378
:104950009A42E5D946F2B803C4F2020346F2B8021D
:10496000C4F20202126822F001021A6000BF46F28D
:10497000B803C4F202031B6803F00103002BF6D155
:1049800046F2B803C4F2020343F60C42C4F200023A
:104990009A6046F2B803C4F2020341F21C12C2F25A
:1049A0000002DA6046F2B803C4F2020345F22012B4
:1049B000C2F200021A6146F2B803C4F202034FF4D5
:1049C00000525A6046F2B803C4F2020342F658524B
:1049D000C0F205021A604FF00000FBF78BFD0346A2
:1049E000BB714FF0000040F6B011C2F20001FDF7BC
:1049F00099FC03461A4645F21C13C2F200031A70D2
:104A000045F21C13C2F200031B78002B01D000BF3B
:104A100060E000BF47F25050C0F60000FEF72AFAEF
:104A200003461A4645F21C13C2F200031A7040F600
:104A3000E830C2F2000047F25851C0F600014FF0D2
:104A40000102FDF7A1FC03461A4645F21C13C2F20F
:104A500000031A703B4640F6E830C2F2000040F610
:104A60001C71C2F200014FF40072FDF7F5FD034620
:104A70001A4645F21C13C2F200031A7045F21C13C9
:104A8000C2F200031B78002B24D140F6E830C2F2BA
:104A900000004FF02E01FEF73FFA03461A4645F29A
:104AA0001C13C2F200031A703B4640F6E830C2F213
:104AB000000041F21C11C2F200014FF48042FDF7E8
:104AC000CBFD03461A4645F21C13C2F200031A70CE
:104AD00000E000BF40F6A013C2F200031B78DBB277
:104AE000002B28D04FF44063C4F202034FF400526D
:104AF0001A833B4640F6E830C2F2000041F21C1136
:104B0000C2F200014FF48042FDF7A6FD03461A46AB
:104B100045F21C13C2F200031A704FF44063C4F252
:104B200002034FF400525A8340F6A013C2F200036E
:104B30004FF000021A7040F6A113C2F200031B7876
:104B4000DBB2002B28D04FF44063C4F202034FF4D1
:104B500080421A833B4640F6E830C2F2000045F23C
:104B60002011C2F200014FF48042FDF775FD0346AB
:104B70001A4645F21C13C2F200031A704FF4406348
:104B8000C4F202034FF480425A8340F6A113C2F2EA
:104B900000034FF000021A7040F6A813C2F200039F
:104BA0001B78002B95D040F6A813C2F200034FF0FB
:104BB00000021A7040F6A213C2F200031B78DBB2A7
:104BC00083F00103DBB2002B2FD046F2B803C4F20E
:104BD000020346F2B802C4F20202126842F0010275
:104BE0001A6040F6E830C2F200004FF02E01FEF7E6
:104BF00093F903461A4645F21C13C2F200031A70D9
:104C00003B4640F6E830C2F2000041F21C11C2F20D
:104C100000014FF48042FDF71FFD03461A4645F29E
:104C20001C13C2F200031A7053E740F6A213C2F23B
:104C300000034FF000021A7046F2B803C4F20203F8
:104C400046F2B802C4F20202126822F001021A60AF
:104C50003FE700BF80B582B000AF4FF00003FB71AB
:104C600009E04FF000004FF0000140F61062C2F280
:104C7000000200F041F940F61063C2F200031B7815
:104C8000012BEED14FF03B004FF0000140F61062D7
:104C9000C2F2000200F030F94FF0080040F2A51116
:104CA00040F61062C2F2000200F026F940F61063EE
:104CB000C2F200034FF055021A7040F61863C2F2B8
:104CC00000034FF000021A601FE04FF037004FF072
:104CD000000140F61062C2F2000200F00DF94FF040
:104CE00029004FF0804140F61062C2F2000200F04D
:104CF00003F940F61863C2F200031B6803F10102D6
:104D000040F61863C2F200031A6040F61063C2F264
:104D100000031B78002BD8D14FF0080000F05AF8A0
:104D200000BFFB79184607F10807BD4680BD00BFEC
:104D300080B483B000AF4FF00003FB71FB791846DD
:104D400007F10C07BD4680BC704700BF80B586B038
:104D500000AFF860B9601346FB714FF00003FB75BC
:104D6000FB79012B08D9FB79F868B9681A4600F07D
:104D70000DFC0346FB7505E0F868B96800F002FB1E
:104D80000346FB75FB7D184607F11807BD4680BD3D
:104D900080B487B000AFF860B9601346FB714FF084
:104DA0000003FB75FB7D184607F11C07BD4680BC60
:104DB000704700BF80B485B000AF03463960FB7117
:104DC0004FF00003FB73FB7B184607F11407BD4649
:104DD00080BC704780B483B000AF78607B6843F0DC
:104DE00008037B604FF44053C4F201034FF4405278
:104DF000C4F20102128892B222F0780292B21A80B2
:104E00004FF44053C4F201034FF44052C4F2010284
:104E1000128891B27A6892B202F00F0292B24FEA0F
:104E2000C20292B20A4392B21A804FF44053C4F2C3
:104E300001031B889BB2002B02D04FF0000301E05E
:104E40004FF00103184607F10C07BD4680BC7047C0
:104E500080B487B000AF78604FF00003FB607B68E0
:104E60003B614FF000037B754FF00003FB602DE0CA
:104E70003B691B78BB754FF00003FB7517E07B7D2A
:104E80004FEA43037B75BA7D7B7D5340DBB2DBB2D7
:104E90005BB2002B03DA7B7D83F009037B75BB7D5E
:104EA0004FEA4303BB75FB7D03F10103FB75FB7DFB
:104EB000072BE4D97B7D03F07F037B75FB6803F14F
:104EC0000103FB603B6903F101033B61FB68042BB9
:104ED000CED97B7D4FEA43037B757B7D03F10103D4
:104EE0007B757B6803F105037A7D1A7007F11C0757
:104EF000BD4680BC704700BF80B586B000AFF8608B
:104F0000B9607A604FF000033B614FF00003FB751E
:104F100040F21813C2F2000349F22012C2F200025A
:104F20001A60FB68DBB243F04003DAB249F22013A7
:104F3000C2F200031A70BB68DAB249F22013C2F25F
:104F400000031A71BB684FEA1323DAB249F2201347
:104F5000C2F20003DA70BB684FEA1343DAB249F2D7
:104F60002013C2F200039A70BB684FEA1363DAB2EF
:104F700049F22013C2F200035A7049F22013C2F220
:104F800000031B78402B52D149F22013C2F20003D8
:104F90004FF095025A714FF00003C4F202034FF034
:104FA00004025A834FF03200FFF71EFC4FF44053C7
:104FB000C4F201034FF44052C4F20102128892B2CB
:104FC00022F0780292B21A804FF44053C4F20103E7
:104FD0004FF44052C4F20102128892B242F07002C1
:104FE00092B21A804FF000033B611CE04FF4405333
:104FF000C4F201034FF0FF029A8100BF4FF4405307
:10500000C4F201031B899BB203F00103002BF5D00E
:105010004FF44053C4F201039B899BB2FB753B697B
:1050200003F101033B613B69092BDFD929E049F218
:105030002010C2F20000FFF70BFF4FF00003C4F294
:1050400002034FF004025A834FF03200FFF7CCFB0B
:105050004FF44053C4F201034FF0FF029A8100BFA6
:105060004FF44053C4F201031B899BB203F00103C8
:10507000002BF5D04FF44053C4F201039B899BB23F
:10508000FB754FF000033B6120E04FF44053C4F246
:105090000103396949F22012C2F20002525C9A817E
:1050A00000BF4FF44053C4F201031B899BB203F0CD
:1050B0000103002BF5D04FF44053C4F201039B8948
:1050C0009BB2FB753B6903F101033B613B69052B17
:1050D000DBD94FF44053C4F201034FF0FF029A8131
:1050E00000BF4FF44053C4F201031B899BB203F08D
:1050F0000103002BF5D04FF44053C4F201039B8908
:105100009BB2FB75FB683B2B00F2168101A252F8A3
:1051100023F000BF05520008395300083953000836
:10512000395300083953000839530008395300082F
:1051300039530008E3520008395300083953000876
:1051400039530008A15200083953000839530008A8
:105150003953000839530008055200080552000869
:1051600039530008395300083953000839530008EF
:105170003953000805520008055200083953000849
:1051800039530008395300083953000839530008CF
:1051900039530008395300083953000839530008BF
:1051A00039530008395300083953000839530008AF
:1051B000395300083953000839530008395300089F
:1051C000395300083953000839530008395300088F
:1051D000395300083953000839530008395300087F
:1051E000395300083953000839530008395300086F
:1051F0000552000839530008395300083953000894
:10520000055200084FF44053C4F201034FF0FF026F
:105210009A8100BF4FF44053C4F201031B899BB233
:1052200003F00103002BF5D04FF44053C4F2010307
:105230009B899BB2DAB27B681A704FF44053C4F278
:1052400001034FF0FF029A8100BF4FF44053C4F2B4
:1052500001031B899BB203F00103002BF5D04FF42F
:105260004053C4F201039B899BB2FB7565E04FF488
:105270004053C4F201034FF0FF029A8100BF4FF484
:105280004053C4F201031B899BB203F00103002BBE
:10529000F5D04FF44053C4F201039B899BB2FB75D8
:1052A000FB7D002BE3D118E04FF44053C4F201031F
:1052B0004FF0FF029A8100BF4FF44053C4F2010344
:1052C0001B899BB203F00103002BF5D04FF4405330
:1052D000C4F201039B899BB2FB75FB7D002BE3D0DD
:1052E0002BE04FF000033B6122E04FF44053C4F247
:1052F00001034FF0FF029A8100BF4FF44053C4F204
:1053000001031B899BB203F00103002BF5D04FF47E
:105310004053C4F201039B899BB2DAB27B681A70D6
:105320007B6803F101037B603B6903F101033B618F
:105330003B69042BD9D900E000BFFB68192B0BD8BF
:105340004FF00102FB6802FA03F24FF00003C0F2D3
:1053500006331340002B0CD14FF03200FFF744FA14
:105360004FF00003C4F202034FF004021A8300BF9F
:1053700000E000BFFB7D002B00D100BF07F1180744
:10538000BD4680BD80B584B000AF786039604FF015
:105390000003FB7340F62C63C2F200031B684FF05E
:1053A000110039681A46FFF7A7FD18E04FF4405383
:1053B000C4F201034FF0FF029A8100BF4FF4405343
:1053C000C4F201031B899BB203F00103002BF5D04B
:1053D0004FF44053C4F201039B899BB2FB73FB7BE8
:1053E000FF2BE3D118E04FF44053C4F201034FF018
:1053F000FF029A8100BF4FF44053C4F201031B899E
:105400009BB203F00103002BF5D04FF44053C4F2DC
:1054100001039B899BB2FB73FB7BFF2BE3D040F620
:105420003063C2F200034FF000021A602AE04FF42A
:105430004053C4F201034FF0FF029A8100BF4FF4C2
:105440004053C4F201031B899BB203F00103002BFC
:10545000F5D04FF44053C4F201039B899BB2DAB2FA
:105460007B681A707B6803F101037B6040F6306350
:10547000C2F200031B6803F1010240F63063C2F27E
:1054800000031A6040F63063C2F200031A6840F26B
:10549000FF139A42CBD94FF44053C4F201034FF0AB
:1054A000FF029A8100BF4FF44053C4F201031B89ED
:1054B0009BB203F00103002BF5D04FF44053C4F22C
:1054C00001039B899BB21A4640F63463C2F2000383
:1054D0001A604FF44053C4F201034FF0FF029A8167
:1054E00000BF4FF44053C4F201031B899BB203F089
:1054F0000103002BF5D040F63463C2F200031B68B1
:105500004FEA032240F63463C2F200031A604FF4FC
:105510004053C4F201039B899BB21A4640F63463A0
:10552000C2F200031B681A4340F63463C2F2000360
:105530001A604FF44053C4F201034FF0FF029A8106
:1055400000BF4FF44053C4F201031B899BB203F028
:105550000103002BF5D04FF44053C4F201039B89A3
:105560009BB2FB734FF03200FFF73EF94FF00003A0
:10557000C4F202034FF004021A8300BF4FF000038D
:10558000184607F11007BD4680BD00BF80B586B044
:1055900000AFF860B9607A604FF00003FB7540F629
:1055A0001C63C2F200031B684FF01200B9681A4670
:1055B000FFF7A2FC18E04FF44053C4F201034FF090
:1055C000FF029A8100BF4FF44053C4F201031B89CC
:1055D0009BB203F00103002BF5D04FF44053C4F20B
:1055E00001039B899BB2FB75FB7DFF2BE3D118E088
:1055F0004FF44053C4F201034FF0FF029A8100BF01
:105600004FF44053C4F201031B899BB203F0010322
:10561000002BF5D04FF44053C4F201039B899BB299
:10562000FB75FB7DFF2BE3D040F62063C2F2000345
:105630004FF000021A60B5E040F62463C2F20003A6
:105640004FF000021A602AE04FF44053C4F2010305
:105650004FF0FF029A8100BF4FF44053C4F20103A0
:105660001B899BB203F00103002BF5D04FF440538C
:10567000C4F201039B899BB2DAB2FB681A70FB6823
:1056800003F10103FB6040F62463C2F200031B68D0
:1056900003F1010240F62463C2F200031A6040F6EF
:1056A0002463C2F200031A6840F2FF139A42CBD976
:1056B0004FF44053C4F201034FF0FF029A8100BF40
:1056C0004FF44053C4F201031B899BB203F0010362
:1056D000002BF5D04FF44053C4F201039B899BB2D9
:1056E0001A4640F62863C2F200031A604FF4405392
:1056F000C4F201034FF0FF029A8100BF4FF4405300
:10570000C4F201031B899BB203F00103002BF5D007
:1057100040F62863C2F200031B684FEA032240F6FA
:105720002863C2F200031A604FF44053C4F201032D
:105730009B899BB21A4640F62863C2F200031B689D
:105740001A4340F62863C2F200031A604FF0FF03C9
:10575000FB7518E04FF44053C4F201034FF0FF0211
:105760009A8100BF4FF44053C4F201031B899BB2DE
:1057700003F00103002BF5D04FF44053C4F20103B2
:105780009B899BB2FB75FB7DFE2BE3D140F620632A
:10579000C2F200031B6803F1010240F62063C2F26B
:1057A00000031A6040F62063C2F200031A687B68A7
:1057B0009A42FFF441AF40F61C63C2F200031B683B
:1057C0004FF00C004FF000011A46FFF795FB4FF029
:1057D0003200FFF709F84FF00003C4F202034FF064
:1057E00004021A8300BF4FF00003184607F11807A0
:1057F000BD4680BD80B483B000AF786039604FF0A3
:105800000103184607F10C07BD4680BC704700BF76
:1058100080B485B000AFF860B9607A604FF00103E2
:10582000184607F11407BD4680BC70470749084A6F
:10583000084B9A42BEBF51F8040B42F8040BFFF725
:10584000F8BF054880470548004700007C75000800
:10585000000000207809002019590008DD01000827
:10586000FEE7FEE7FEE7FEE7FEE7FEE7FEE7FEE710
:10587000FEE7FEE7FEE7FEE7FEE7FEE7FEE7FEE700
:10588000FEE7FEE7FEE7FEE7FEE7FEE7FEE7FEE7F0
:10589000FEE7FEE7FEE7FEE7FEE7FEE7FEE7FEE7E0
:1058A000FEE7FEE7FEE7FEE7FEE7FEE7FEE7FEE7D0
:1058B000FEE7FEE7FEE7FEE7FEE7FEE7FEE7FEE7C0
:1058C000FEE7FEE7FEE7FEE7FEE7FEE7FEE7FEE7B0
:1058D000FEE7FEE7FEE7FEE7FEE7FEE7FEE7FEE7A0
:1058E000FEE7FEE7FEE7FEE7FEE7FEE7FEE7FEE790
:1058F000FEE7FEE7FEE7FEE7FEE7FEE7FEE7FEE780
:10590000FEE7FEE7FEE7FEE7FEE7FEE7FEE7FEE76F
:10591000FEE7FEE7FEE7FEE780B500AF4FF46D431C
:10592000CEF200034FF46D42CEF20002D2F888208E
:1059300042F47002C3F888204FF46053C4F20203AB
:105940004FF46052C4F20202126842F001021A607F
:105950004FF46053C4F202034FF000029A604FF418
:105960006053C4F202034FF46052C4F202021268A0
:1059700022F0847222F480321A604FF46053C4F231
:10598000020343F21002C2F200425A604FF4605325
:10599000C4F202034FF46052C4F20202126822F40D
:1059A00080221A604FF46053C4F202034FF00002E9
:1059B000DA6000F0B9F880BD80B487B000AF4FF076
:1059C00000033B614FF000037B614FF00203FB607B
:1059D0004FF00003BB604FF002037B604FF4605355
:1059E000C4F202039B6803F00C033B613B69042B88
:1059F0000DD0082B15D0002B69D140F21C13C2F238
:105A000000034FF41052C0F2F4021A6069E040F251
:105A10001C13C2F200034FF49052C0F27A021A60D3
:105A20005FE04FF46053C4F202035B6803F4800349
:105A30004FEA9353BB604FF46053C4F202035B68B8
:105A400003F03F037B60BB68002B14D04FF49053EE
:105A5000C0F27A037A68B3FBF2F24FF46053C4F2F7
:105A60000203596847F6C0730B404FEA931303FBD8
:105A700002F37B6113E04FF41053C0F2F4037A6831
:105A8000B3FBF2F24FF46053C4F20203596847F6D5
:105A9000C0730B404FEA931303FB02F37B614FF497
:105AA0006053C4F202035B6803F440334FEA1343CC
:105AB00003F101034FEA4303FB607A69FB68B2FB21
:105AC000F3F240F21C13C2F200031A6009E040F244
:105AD0001C13C2F200034FF41052C0F2F4021A6019
